{
  "_format": "hh-sol-artifact-1",
  "contractName": "CharityDonation",
  "sourceName": "contracts/CharityDonation.sol",
  "abi": [
    {
      "anonymous": false,
      "inputs": [
        {
          "indexed": false,
          "internalType": "uint256",
          "name": "campaignId",
          "type": "uint256"
        },
        {
          "indexed": false,
          "internalType": "bool",
          "name": "reachedGoal",
          "type": "bool"
        }
      ],
      "name": "CampaignClosed",
      "type": "event"
    },
    {
      "anonymous": false,
      "inputs": [
        {
          "indexed": false,
          "internalType": "uint256",
          "name": "campaignId",
          "type": "uint256"
        },
        {
          "indexed": false,
          "internalType": "address",
          "name": "donor",
          "type": "address"
        },
        {
          "indexed": false,
          "internalType": "uint256",
          "name": "amount",
          "type": "uint256"
        }
      ],
      "name": "DonationMade",
      "type": "event"
    },
    {
      "anonymous": false,
      "inputs": [
        {
          "indexed": false,
          "internalType": "uint256",
          "name": "campaignId",
          "type": "uint256"
        },
        {
          "indexed": false,
          "internalType": "address",
          "name": "creator",
          "type": "address"
        },
        {
          "indexed": false,
          "internalType": "uint256",
          "name": "amount",
          "type": "uint256"
        }
      ],
      "name": "FundsWithdrawn",
      "type": "event"
    },
    {
      "inputs": [],
      "name": "campaignCount",
      "outputs": [
        {
          "internalType": "uint256",
          "name": "",
          "type": "uint256"
        }
      ],
      "stateMutability": "view",
      "type": "function"
    },
    {
      "inputs": [
        {
          "internalType": "uint256",
          "name": "",
          "type": "uint256"
        }
      ],
      "name": "campaigns",
      "outputs": [
        {
          "internalType": "address",
          "name": "creator",
          "type": "address"
        },
        {
          "internalType": "string",
          "name": "title",
          "type": "string"
        },
        {
          "internalType": "address",
          "name": "tokenAddress",
          "type": "address"
        },
        {
          "internalType": "uint256",
          "name": "goal",
          "type": "uint256"
        },
        {
          "internalType": "uint256",
          "name": "deadline",
          "type": "uint256"
        },
        {
          "internalType": "uint256",
          "name": "totalDonated",
          "type": "uint256"
        },
        {
          "internalType": "bool",
          "name": "isClosed",
          "type": "bool"
        },
        {
          "internalType": "bool",
          "name": "isNoLimit",
          "type": "bool"
        }
      ],
      "stateMutability": "view",
      "type": "function"
    },
    {
      "inputs": [
        {
          "internalType": "uint256",
          "name": "_campaignId",
          "type": "uint256"
        }
      ],
      "name": "closeCampaign",
      "outputs": [],
      "stateMutability": "nonpayable",
      "type": "function"
    },
    {
      "inputs": [
        {
          "internalType": "string",
          "name": "_title",
          "type": "string"
        },
        {
          "internalType": "address",
          "name": "_tokenAddress",
          "type": "address"
        },
        {
          "internalType": "uint256",
          "name": "_goal",
          "type": "uint256"
        },
        {
          "internalType": "uint256",
          "name": "_duration",
          "type": "uint256"
        },
        {
          "internalType": "bool",
          "name": "_isNoLimit",
          "type": "bool"
        }
      ],
      "name": "createCampaign",
      "outputs": [],
      "stateMutability": "nonpayable",
      "type": "function"
    },
    {
      "inputs": [
        {
          "internalType": "uint256",
          "name": "_campaignId",
          "type": "uint256"
        },
        {
          "internalType": "uint256",
          "name": "_amount",
          "type": "uint256"
        }
      ],
      "name": "donate",
      "outputs": [],
      "stateMutability": "payable",
      "type": "function"
    },
    {
      "inputs": [
        {
          "internalType": "uint256",
          "name": "",
          "type": "uint256"
        },
        {
          "internalType": "address",
          "name": "",
          "type": "address"
        }
      ],
      "name": "donations",
      "outputs": [
        {
          "internalType": "uint256",
          "name": "",
          "type": "uint256"
        }
      ],
      "stateMutability": "view",
      "type": "function"
    },
    {
      "inputs": [
        {
          "internalType": "uint256",
          "name": "",
          "type": "uint256"
        },
        {
          "internalType": "address",
          "name": "",
          "type": "address"
        }
      ],
      "name": "donorInfo",
      "outputs": [
        {
          "internalType": "address",
          "name": "donorAddress",
          "type": "address"
        },
        {
          "internalType": "uint256",
          "name": "totalAmount",
          "type": "uint256"
        },
        {
          "internalType": "uint256",
          "name": "donationCount",
          "type": "uint256"
        },
        {
          "internalType": "uint256",
          "name": "lastDonationTime",
          "type": "uint256"
        }
      ],
      "stateMutability": "view",
      "type": "function"
    },
    {
      "inputs": [
        {
          "internalType": "uint256",
          "name": "_campaignId",
          "type": "uint256"
        }
      ],
      "name": "getCampaignStatus",
      "outputs": [
        {
          "internalType": "bool",
          "name": "isActive",
          "type": "bool"
        },
        {
          "internalType": "bool",
          "name": "isSuccessful",
          "type": "bool"
        },
        {
          "internalType": "uint256",
          "name": "remainingTime",
          "type": "uint256"
        }
      ],
      "stateMutability": "view",
      "type": "function"
    },
    {
      "inputs": [
        {
          "internalType": "uint256",
          "name": "_campaignId",
          "type": "uint256"
        },
        {
          "internalType": "address",
          "name": "_donor",
          "type": "address"
        }
      ],
      "name": "getDonorInfo",
      "outputs": [
        {
          "internalType": "uint256",
          "name": "totalAmount",
          "type": "uint256"
        },
        {
          "internalType": "uint256",
          "name": "donationCount",
          "type": "uint256"
        },
        {
          "internalType": "uint256",
          "name": "lastDonationTime",
          "type": "uint256"
        }
      ],
      "stateMutability": "view",
      "type": "function"
    },
    {
      "inputs": [
        {
          "internalType": "uint256",
          "name": "_campaignId",
          "type": "uint256"
        }
      ],
      "name": "getDonors",
      "outputs": [
        {
          "components": [
            {
              "internalType": "address",
              "name": "donorAddress",
              "type": "address"
            },
            {
              "internalType": "uint256",
              "name": "totalAmount",
              "type": "uint256"
            },
            {
              "internalType": "uint256",
              "name": "donationCount",
              "type": "uint256"
            },
            {
              "internalType": "uint256",
              "name": "lastDonationTime",
              "type": "uint256"
            }
          ],
          "internalType": "struct CharityDonation.DonorInfo[]",
          "name": "donors",
          "type": "tuple[]"
        }
      ],
      "stateMutability": "view",
      "type": "function"
    },
    {
      "inputs": [
        {
          "internalType": "uint256",
          "name": "",
          "type": "uint256"
        },
        {
          "internalType": "address",
          "name": "",
          "type": "address"
        }
      ],
      "name": "hasDonated",
      "outputs": [
        {
          "internalType": "bool",
          "name": "",
          "type": "bool"
        }
      ],
      "stateMutability": "view",
      "type": "function"
    }
  ],
  "bytecode": "0x6080604052348015600f57600080fd5b5061254f8061001f6000396000f3fe60806040526004361061009c5760003560e01c806367f8f8c51161006457806367f8f8c5146101bb5780636c19e004146101e45780637274e30d14610223578063b0e1c1e11461024e578063b222f8aa14610277578063ee1554a3146102b65761009c565b80630cdd53f6146100a1578063141961bc146100bd5780631e15539814610101578063295165111461013e5780635e5d40661461017b575b600080fd5b6100bb60048036038101906100b6919061154f565b6102f3565b005b3480156100c957600080fd5b506100e460048036038101906100df919061158f565b6108ab565b6040516100f89897969594939291906116b7565b60405180910390f35b34801561010d57600080fd5b5061012860048036038101906101239190611768565b6109d5565b60405161013591906117a8565b60405180910390f35b34801561014a57600080fd5b506101656004803603810190610160919061158f565b610a04565b60405161017291906118e5565b60405180910390f35b34801561018757600080fd5b506101a2600480360381019061019d9190611768565b610c28565b6040516101b29493929190611907565b60405180910390f35b3480156101c757600080fd5b506101e260048036038101906101dd9190611aad565b610c85565b005b3480156101f057600080fd5b5061020b6004803603810190610206919061158f565b610f27565b60405161021a93929190611b44565b60405180910390f35b34801561022f57600080fd5b50610238610fbc565b6040516102459190611b7b565b60405180910390f35b34801561025a57600080fd5b506102756004803603810190610270919061158f565b610fc2565b005b34801561028357600080fd5b5061029e60048036038101906102999190611768565b61115f565b6040516102ad93929190611b96565b60405180910390f35b3480156102c257600080fd5b506102dd60048036038101906102d89190611768565b6111d4565b6040516102ea9190611b7b565b60405180910390f35b600080600084815260200190815260200160002090508060060160009054906101000a900460ff161561035b576040517f08c379a000000000000000000000000000000000000000000000000000000000815260040161035290611c19565b60405180910390fd5b806004015442106103a1576040517f08c379a000000000000000000000000000000000000000000000000000000000815260040161039890611c85565b60405180910390fd5b600082116103e4576040517f08c379a00000000000000000000000000000000000000000000000000000000081526004016103db90611cf1565b60405180910390fd5b600073ffffffffffffffffffffffffffffffffffffffff168160020160009054906101000a900473ffffffffffffffffffffffffffffffffffffffff1673ffffffffffffffffffffffffffffffffffffffff16036104835781341461047e576040517f08c379a000000000000000000000000000000000000000000000000000000000815260040161047590611d5d565b60405180910390fd5b6105aa565b600034146104c6576040517f08c379a00000000000000000000000000000000000000000000000000000000081526004016104bd90611dc9565b60405180910390fd5b8060020160009054906101000a900473ffffffffffffffffffffffffffffffffffffffff1673ffffffffffffffffffffffffffffffffffffffff166323b872dd3330856040518463ffffffff1660e01b815260040161052793929190611de9565b6020604051808303816000875af1158015610546573d6000803e3d6000fd5b505050506040513d601f19601f8201168201806040525081019061056a9190611e35565b6105a9576040517f08c379a00000000000000000000000000000000000000000000000000000000081526004016105a090611eae565b60405180910390fd5b5b818160050160008282546105be9190611efd565b92505081905550816001600085815260200190815260200160002060003373ffffffffffffffffffffffffffffffffffffffff1673ffffffffffffffffffffffffffffffffffffffff16815260200190815260200160002060008282546106259190611efd565b9250508190555060006003600085815260200190815260200160002060003373ffffffffffffffffffffffffffffffffffffffff1673ffffffffffffffffffffffffffffffffffffffff16815260200190815260200160002090506002600085815260200190815260200160002060003373ffffffffffffffffffffffffffffffffffffffff1673ffffffffffffffffffffffffffffffffffffffff16815260200190815260200160002060009054906101000a900460ff166107f457338160000160006101000a81548173ffffffffffffffffffffffffffffffffffffffff021916908373ffffffffffffffffffffffffffffffffffffffff16021790555081600701339080600181540180825580915050600190039060005260206000200160009091909190916101000a81548173ffffffffffffffffffffffffffffffffffffffff021916908373ffffffffffffffffffffffffffffffffffffffff16021790555060016002600086815260200190815260200160002060003373ffffffffffffffffffffffffffffffffffffffff1673ffffffffffffffffffffffffffffffffffffffff16815260200190815260200160002060006101000a81548160ff0219169083151502179055505b828160010160008282546108089190611efd565b9250508190555060018160020160008282546108249190611efd565b925050819055504281600301819055507fe555da28bdb778f65d22794d88927ebaeca03f7de9d1b7d39245bc8fb5ca078a84338560405161086793929190611f31565b60405180910390a18160060160019054906101000a900460ff1615801561089657508160030154826005015410155b156108a5576108a4846111f9565b5b50505050565b60006020528060005260406000206000915090508060000160009054906101000a900473ffffffffffffffffffffffffffffffffffffffff16908060010180546108f490611f97565b80601f016020809104026020016040519081016040528092919081815260200182805461092090611f97565b801561096d5780601f106109425761010080835404028352916020019161096d565b820191906000526020600020905b81548152906001019060200180831161095057829003601f168201915b5050505050908060020160009054906101000a900473ffffffffffffffffffffffffffffffffffffffff16908060030154908060040154908060050154908060060160009054906101000a900460ff16908060060160019054906101000a900460ff16905088565b60026020528160005260406000206020528060005260406000206000915091509054906101000a900460ff1681565b606060008060008481526020019081526020016000209050600081600701805480602002602001604051908101604052809291908181526020018280548015610aa257602002820191906000526020600020905b8160009054906101000a900473ffffffffffffffffffffffffffffffffffffffff1673ffffffffffffffffffffffffffffffffffffffff1681526020019060010190808311610a58575b50505050509050805167ffffffffffffffff811115610ac457610ac3611956565b5b604051908082528060200260200182016040528015610afd57816020015b610aea611420565b815260200190600190039081610ae25790505b50925060005b8151811015610c2057600360008681526020019081526020016000206000838381518110610b3457610b33611fc8565b5b602002602001015173ffffffffffffffffffffffffffffffffffffffff1673ffffffffffffffffffffffffffffffffffffffff1681526020019081526020016000206040518060800160405290816000820160009054906101000a900473ffffffffffffffffffffffffffffffffffffffff1673ffffffffffffffffffffffffffffffffffffffff1673ffffffffffffffffffffffffffffffffffffffff1681526020016001820154815260200160028201548152602001600382015481525050848281518110610c0857610c07611fc8565b5b60200260200101819052508080600101915050610b03565b505050919050565b6003602052816000526040600020602052806000526040600020600091509150508060000160009054906101000a900473ffffffffffffffffffffffffffffffffffffffff16908060010154908060020154908060030154905084565b60008311610cc8576040517f08c379a0000000000000000000000000000000000000000000000000000000008152600401610cbf90612043565b60405180910390fd5b60008211610d0b576040517f08c379a0000000000000000000000000000000000000000000000000000000008152600401610d02906120af565b60405180910390fd5b6040518061012001604052803373ffffffffffffffffffffffffffffffffffffffff1681526020018681526020018573ffffffffffffffffffffffffffffffffffffffff1681526020018481526020018342610d679190611efd565b8152602001600081526020016000151581526020018215158152602001600067ffffffffffffffff811115610d9f57610d9e611956565b5b604051908082528060200260200182016040528015610dcd5781602001602082028036833780820191505090505b50815250600080600454815260200190815260200160002060008201518160000160006101000a81548173ffffffffffffffffffffffffffffffffffffffff021916908373ffffffffffffffffffffffffffffffffffffffff1602179055506020820151816001019081610e41919061227b565b5060408201518160020160006101000a81548173ffffffffffffffffffffffffffffffffffffffff021916908373ffffffffffffffffffffffffffffffffffffffff160217905550606082015181600301556080820151816004015560a0820151816005015560c08201518160060160006101000a81548160ff02191690831515021790555060e08201518160060160016101000a81548160ff021916908315150217905550610100820151816007019080519060200190610f0492919061145e565b5090505060046000815480929190610f1b9061234d565b91905055505050505050565b60008060008060008086815260200190815260200160002090508060060160009054906101000a900460ff16158015610f635750806004015442105b935080600301548160050154101580610f8a57508060060160019054906101000a900460ff165b92508060040154421015610faf57428160040154610fa89190612395565b9150610fb4565b600091505b509193909250565b60045481565b600080600083815260200190815260200160002090508060000160009054906101000a900473ffffffffffffffffffffffffffffffffffffffff1673ffffffffffffffffffffffffffffffffffffffff163373ffffffffffffffffffffffffffffffffffffffff16148061103a575080600401544210155b611079576040517f08c379a00000000000000000000000000000000000000000000000000000000081526004016110709061243b565b60405180910390fd5b8060060160009054906101000a900460ff16156110cb576040517f08c379a00000000000000000000000000000000000000000000000000000000081526004016110c2906124a7565b60405180910390fd5b60018160060160006101000a81548160ff021916908315150217905550600081600301548260050154101590507fb08312190b5508b59f34a0cda3a5b1010da8272854d7556b9fc6e126c22fe49d83826040516111299291906124c7565b60405180910390a1808061114b57508160060160019054906101000a900460ff165b1561115a57611159836111f9565b5b505050565b6000806000806003600087815260200190815260200160002060008673ffffffffffffffffffffffffffffffffffffffff1673ffffffffffffffffffffffffffffffffffffffff1681526020019081526020016000209050806001015481600201548260030154935093509350509250925092565b6001602052816000526040600020602052806000526040600020600091509150505481565b60008060008381526020019081526020016000209050600081600501549050600081111561141b5760008260050181905550600073ffffffffffffffffffffffffffffffffffffffff168260020160009054906101000a900473ffffffffffffffffffffffffffffffffffffffff1673ffffffffffffffffffffffffffffffffffffffff16036112f3578160000160009054906101000a900473ffffffffffffffffffffffffffffffffffffffff1673ffffffffffffffffffffffffffffffffffffffff166108fc829081150290604051600060405180830381858888f193505050501580156112ed573d6000803e3d6000fd5b506113bb565b8160020160009054906101000a900473ffffffffffffffffffffffffffffffffffffffff1673ffffffffffffffffffffffffffffffffffffffff1663a9059cbb8360000160009054906101000a900473ffffffffffffffffffffffffffffffffffffffff16836040518363ffffffff1660e01b81526004016113769291906124f0565b6020604051808303816000875af1158015611395573d6000803e3d6000fd5b505050506040513d601f19601f820116820180604052508101906113b99190611e35565b505b7ff440aec6b52895984d061d622e6edeba6210f7c3e059be920663140c084560d7838360000160009054906101000a900473ffffffffffffffffffffffffffffffffffffffff168360405161141293929190611f31565b60405180910390a15b505050565b6040518060800160405280600073ffffffffffffffffffffffffffffffffffffffff1681526020016000815260200160008152602001600081525090565b8280548282559060005260206000209081019282156114d7579160200282015b828111156114d65782518260006101000a81548173ffffffffffffffffffffffffffffffffffffffff021916908373ffffffffffffffffffffffffffffffffffffffff1602179055509160200191906001019061147e565b5b5090506114e491906114e8565b5090565b5b808211156115015760008160009055506001016114e9565b5090565b6000604051905090565b600080fd5b600080fd5b6000819050919050565b61152c81611519565b811461153757600080fd5b50565b60008135905061154981611523565b92915050565b600080604083850312156115665761156561150f565b5b60006115748582860161153a565b92505060206115858582860161153a565b9150509250929050565b6000602082840312156115a5576115a461150f565b5b60006115b38482850161153a565b91505092915050565b600073ffffffffffffffffffffffffffffffffffffffff82169050919050565b60006115e7826115bc565b9050919050565b6115f7816115dc565b82525050565b600081519050919050565b600082825260208201905092915050565b60005b8381101561163757808201518184015260208101905061161c565b60008484015250505050565b6000601f19601f8301169050919050565b600061165f826115fd565b6116698185611608565b9350611679818560208601611619565b61168281611643565b840191505092915050565b61169681611519565b82525050565b60008115159050919050565b6116b18161169c565b82525050565b6000610100820190506116cd600083018b6115ee565b81810360208301526116df818a611654565b90506116ee60408301896115ee565b6116fb606083018861168d565b611708608083018761168d565b61171560a083018661168d565b61172260c08301856116a8565b61172f60e08301846116a8565b9998505050505050505050565b611745816115dc565b811461175057600080fd5b50565b6000813590506117628161173c565b92915050565b6000806040838503121561177f5761177e61150f565b5b600061178d8582860161153a565b925050602061179e85828601611753565b9150509250929050565b60006020820190506117bd60008301846116a8565b92915050565b600081519050919050565b600082825260208201905092915050565b6000819050602082019050919050565b6117f8816115dc565b82525050565b61180781611519565b82525050565b60808201600082015161182360008501826117ef565b50602082015161183660208501826117fe565b50604082015161184960408501826117fe565b50606082015161185c60608501826117fe565b50505050565b600061186e838361180d565b60808301905092915050565b6000602082019050919050565b6000611892826117c3565b61189c81856117ce565b93506118a7836117df565b8060005b838110156118d85781516118bf8882611862565b97506118ca8361187a565b9250506001810190506118ab565b5085935050505092915050565b600060208201905081810360008301526118ff8184611887565b905092915050565b600060808201905061191c60008301876115ee565b611929602083018661168d565b611936604083018561168d565b611943606083018461168d565b95945050505050565b600080fd5b600080fd5b7f4e487b7100000000000000000000000000000000000000000000000000000000600052604160045260246000fd5b61198e82611643565b810181811067ffffffffffffffff821117156119ad576119ac611956565b5b80604052505050565b60006119c0611505565b90506119cc8282611985565b919050565b600067ffffffffffffffff8211156119ec576119eb611956565b5b6119f582611643565b9050602081019050919050565b82818337600083830152505050565b6000611a24611a1f846119d1565b6119b6565b905082815260208101848484011115611a4057611a3f611951565b5b611a4b848285611a02565b509392505050565b600082601f830112611a6857611a6761194c565b5b8135611a78848260208601611a11565b91505092915050565b611a8a8161169c565b8114611a9557600080fd5b50565b600081359050611aa781611a81565b92915050565b600080600080600060a08688031215611ac957611ac861150f565b5b600086013567ffffffffffffffff811115611ae757611ae6611514565b5b611af388828901611a53565b9550506020611b0488828901611753565b9450506040611b158882890161153a565b9350506060611b268882890161153a565b9250506080611b3788828901611a98565b9150509295509295909350565b6000606082019050611b5960008301866116a8565b611b6660208301856116a8565b611b73604083018461168d565b949350505050565b6000602082019050611b90600083018461168d565b92915050565b6000606082019050611bab600083018661168d565b611bb8602083018561168d565b611bc5604083018461168d565b949350505050565b7f43616d706169676e20697320636c6f7365640000000000000000000000000000600082015250565b6000611c03601283611608565b9150611c0e82611bcd565b602082019050919050565b60006020820190508181036000830152611c3281611bf6565b9050919050565b7f43616d706169676e2068617320656e6465640000000000000000000000000000600082015250565b6000611c6f601283611608565b9150611c7a82611c39565b602082019050919050565b60006020820190508181036000830152611c9e81611c62565b9050919050565b7f416d6f756e74206d7573742062652067726561746572207468616e2030000000600082015250565b6000611cdb601d83611608565b9150611ce682611ca5565b602082019050919050565b60006020820190508181036000830152611d0a81611cce565b9050919050565b7f4d69736d617463682045544820616d6f756e7400000000000000000000000000600082015250565b6000611d47601383611608565b9150611d5282611d11565b602082019050919050565b60006020820190508181036000830152611d7681611d3a565b9050919050565b7f446f206e6f742073656e64204554480000000000000000000000000000000000600082015250565b6000611db3600f83611608565b9150611dbe82611d7d565b602082019050919050565b60006020820190508181036000830152611de281611da6565b9050919050565b6000606082019050611dfe60008301866115ee565b611e0b60208301856115ee565b611e18604083018461168d565b949350505050565b600081519050611e2f81611a81565b92915050565b600060208284031215611e4b57611e4a61150f565b5b6000611e5984828501611e20565b91505092915050565b7f546f6b656e207472616e73666572206661696c65640000000000000000000000600082015250565b6000611e98601583611608565b9150611ea382611e62565b602082019050919050565b60006020820190508181036000830152611ec781611e8b565b9050919050565b7f4e487b7100000000000000000000000000000000000000000000000000000000600052601160045260246000fd5b6000611f0882611519565b9150611f1383611519565b9250828201905080821115611f2b57611f2a611ece565b5b92915050565b6000606082019050611f46600083018661168d565b611f5360208301856115ee565b611f60604083018461168d565b949350505050565b7f4e487b7100000000000000000000000000000000000000000000000000000000600052602260045260246000fd5b60006002820490506001821680611faf57607f821691505b602082108103611fc257611fc1611f68565b5b50919050565b7f4e487b7100000000000000000000000000000000000000000000000000000000600052603260045260246000fd5b7f476f616c206d7573742062652067726561746572207468616e20300000000000600082015250565b600061202d601b83611608565b915061203882611ff7565b602082019050919050565b6000602082019050818103600083015261205c81612020565b9050919050565b7f4475726174696f6e206d7573742062652067726561746572207468616e203000600082015250565b6000612099601f83611608565b91506120a482612063565b602082019050919050565b600060208201905081810360008301526120c88161208c565b9050919050565b60008190508160005260206000209050919050565b60006020601f8301049050919050565b600082821b905092915050565b6000600883026121317fffffffffffffffffffffffffffffffffffffffffffffffffffffffffffffffff826120f4565b61213b86836120f4565b95508019841693508086168417925050509392505050565b6000819050919050565b600061217861217361216e84611519565b612153565b611519565b9050919050565b6000819050919050565b6121928361215d565b6121a661219e8261217f565b848454612101565b825550505050565b600090565b6121bb6121ae565b6121c6818484612189565b505050565b5b818110156121ea576121df6000826121b3565b6001810190506121cc565b5050565b601f82111561222f57612200816120cf565b612209846120e4565b81016020851015612218578190505b61222c612224856120e4565b8301826121cb565b50505b505050565b600082821c905092915050565b600061225260001984600802612234565b1980831691505092915050565b600061226b8383612241565b9150826002028217905092915050565b612284826115fd565b67ffffffffffffffff81111561229d5761229c611956565b5b6122a78254611f97565b6122b28282856121ee565b600060209050601f8311600181146122e557600084156122d3578287015190505b6122dd858261225f565b865550612345565b601f1984166122f3866120cf565b60005b8281101561231b578489015182556001820191506020850194506020810190506122f6565b868310156123385784890151612334601f891682612241565b8355505b6001600288020188555050505b505050505050565b600061235882611519565b91507fffffffffffffffffffffffffffffffffffffffffffffffffffffffffffffffff820361238a57612389611ece565b5b600182019050919050565b60006123a082611519565b91506123ab83611519565b92508282039050818111156123c3576123c2611ece565b5b92915050565b7f4f6e6c792063726561746f722063616e20636c6f7365206265666f726520646560008201527f61646c696e650000000000000000000000000000000000000000000000000000602082015250565b6000612425602683611608565b9150612430826123c9565b604082019050919050565b6000602082019050818103600083015261245481612418565b9050919050565b7f43616d706169676e20616c726561647920636c6f736564000000000000000000600082015250565b6000612491601783611608565b915061249c8261245b565b602082019050919050565b600060208201905081810360008301526124c081612484565b9050919050565b60006040820190506124dc600083018561168d565b6124e960208301846116a8565b9392505050565b600060408201905061250560008301856115ee565b612512602083018461168d565b939250505056fea264697066735822122081b51c97b946ac728c8f8709a0445667983b7255d2df99d7bcee04849ad7cc8c64736f6c634300081c0033",
  "linkReferences": {},
  "deployedLinkReferences": {}
}