{
  "_format": "hh-sol-artifact-1",
  "contractName": "CharityDonation",
  "sourceName": "contracts/CharityDonation.sol",
  "abi": [
    {
      "anonymous": false,
      "inputs": [
        {
          "indexed": false,
          "internalType": "uint256",
          "name": "campaignId",
          "type": "uint256"
        },
        {
          "indexed": false,
          "internalType": "bool",
          "name": "reachedGoal",
          "type": "bool"
        },
        {
          "indexed": false,
          "internalType": "string",
          "name": "reason",
          "type": "string"
        }
      ],
      "name": "CampaignClosed",
      "type": "event"
    },
    {
      "anonymous": false,
      "inputs": [
        {
          "indexed": false,
          "internalType": "uint256",
          "name": "campaignId",
          "type": "uint256"
        },
        {
          "indexed": false,
          "internalType": "address",
          "name": "donor",
          "type": "address"
        },
        {
          "indexed": false,
          "internalType": "uint256",
          "name": "amount",
          "type": "uint256"
        }
      ],
      "name": "DonationMade",
      "type": "event"
    },
    {
      "anonymous": false,
      "inputs": [
        {
          "indexed": false,
          "internalType": "uint256",
          "name": "campaignId",
          "type": "uint256"
        },
        {
          "indexed": false,
          "internalType": "address",
          "name": "creator",
          "type": "address"
        },
        {
          "indexed": false,
          "internalType": "uint256",
          "name": "amount",
          "type": "uint256"
        }
      ],
      "name": "FundsWithdrawn",
      "type": "event"
    },
    {
      "stateMutability": "payable",
      "type": "fallback"
    },
    {
      "inputs": [],
      "name": "campaignCount",
      "outputs": [
        {
          "internalType": "uint256",
          "name": "",
          "type": "uint256"
        }
      ],
      "stateMutability": "view",
      "type": "function"
    },
    {
      "inputs": [
        {
          "internalType": "uint256",
          "name": "",
          "type": "uint256"
        }
      ],
      "name": "campaigns",
      "outputs": [
        {
          "internalType": "address",
          "name": "creator",
          "type": "address"
        },
        {
          "internalType": "string",
          "name": "title",
          "type": "string"
        },
        {
          "internalType": "address",
          "name": "tokenAddress",
          "type": "address"
        },
        {
          "internalType": "uint256",
          "name": "goal",
          "type": "uint256"
        },
        {
          "internalType": "uint256",
          "name": "deadline",
          "type": "uint256"
        },
        {
          "internalType": "uint256",
          "name": "totalDonated",
          "type": "uint256"
        },
        {
          "internalType": "bool",
          "name": "isClosed",
          "type": "bool"
        },
        {
          "internalType": "bool",
          "name": "isNoLimit",
          "type": "bool"
        },
        {
          "internalType": "string",
          "name": "closeReason",
          "type": "string"
        }
      ],
      "stateMutability": "view",
      "type": "function"
    },
    {
      "inputs": [
        {
          "internalType": "uint256",
          "name": "_campaignId",
          "type": "uint256"
        },
        {
          "internalType": "string",
          "name": "_reason",
          "type": "string"
        }
      ],
      "name": "closeCampaign",
      "outputs": [],
      "stateMutability": "nonpayable",
      "type": "function"
    },
    {
      "inputs": [
        {
          "internalType": "uint256",
          "name": "_campaignId",
          "type": "uint256"
        }
      ],
      "name": "closeExpiredCampaign",
      "outputs": [],
      "stateMutability": "nonpayable",
      "type": "function"
    },
    {
      "inputs": [
        {
          "internalType": "uint256[]",
          "name": "_campaignIds",
          "type": "uint256[]"
        }
      ],
      "name": "closeExpiredCampaigns",
      "outputs": [],
      "stateMutability": "nonpayable",
      "type": "function"
    },
    {
      "inputs": [
        {
          "internalType": "string",
          "name": "_title",
          "type": "string"
        },
        {
          "internalType": "address",
          "name": "_tokenAddress",
          "type": "address"
        },
        {
          "internalType": "uint256",
          "name": "_goal",
          "type": "uint256"
        },
        {
          "internalType": "uint256",
          "name": "_duration",
          "type": "uint256"
        },
        {
          "internalType": "bool",
          "name": "_isNoLimit",
          "type": "bool"
        }
      ],
      "name": "createCampaign",
      "outputs": [],
      "stateMutability": "nonpayable",
      "type": "function"
    },
    {
      "inputs": [
        {
          "internalType": "uint256",
          "name": "_campaignId",
          "type": "uint256"
        },
        {
          "internalType": "uint256",
          "name": "_amount",
          "type": "uint256"
        }
      ],
      "name": "donate",
      "outputs": [],
      "stateMutability": "payable",
      "type": "function"
    },
    {
      "inputs": [
        {
          "internalType": "uint256",
          "name": "",
          "type": "uint256"
        },
        {
          "internalType": "address",
          "name": "",
          "type": "address"
        }
      ],
      "name": "donations",
      "outputs": [
        {
          "internalType": "uint256",
          "name": "",
          "type": "uint256"
        }
      ],
      "stateMutability": "view",
      "type": "function"
    },
    {
      "inputs": [
        {
          "internalType": "uint256",
          "name": "",
          "type": "uint256"
        },
        {
          "internalType": "address",
          "name": "",
          "type": "address"
        }
      ],
      "name": "donorInfo",
      "outputs": [
        {
          "internalType": "address",
          "name": "donorAddress",
          "type": "address"
        },
        {
          "internalType": "uint256",
          "name": "totalAmount",
          "type": "uint256"
        },
        {
          "internalType": "uint256",
          "name": "donationCount",
          "type": "uint256"
        },
        {
          "internalType": "uint256",
          "name": "lastDonationTime",
          "type": "uint256"
        }
      ],
      "stateMutability": "view",
      "type": "function"
    },
    {
      "inputs": [
        {
          "internalType": "uint256",
          "name": "_campaignId",
          "type": "uint256"
        }
      ],
      "name": "emergencyWithdraw",
      "outputs": [],
      "stateMutability": "nonpayable",
      "type": "function"
    },
    {
      "inputs": [
        {
          "internalType": "uint256",
          "name": "_campaignId",
          "type": "uint256"
        }
      ],
      "name": "getCampaign",
      "outputs": [
        {
          "components": [
            {
              "internalType": "address",
              "name": "creator",
              "type": "address"
            },
            {
              "internalType": "string",
              "name": "title",
              "type": "string"
            },
            {
              "internalType": "address",
              "name": "tokenAddress",
              "type": "address"
            },
            {
              "internalType": "uint256",
              "name": "goal",
              "type": "uint256"
            },
            {
              "internalType": "uint256",
              "name": "deadline",
              "type": "uint256"
            },
            {
              "internalType": "uint256",
              "name": "totalDonated",
              "type": "uint256"
            },
            {
              "internalType": "bool",
              "name": "isClosed",
              "type": "bool"
            },
            {
              "internalType": "bool",
              "name": "isNoLimit",
              "type": "bool"
            },
            {
              "internalType": "address[]",
              "name": "donors",
              "type": "address[]"
            },
            {
              "internalType": "string",
              "name": "closeReason",
              "type": "string"
            }
          ],
          "internalType": "struct CharityDonation.Campaign",
          "name": "",
          "type": "tuple"
        }
      ],
      "stateMutability": "view",
      "type": "function"
    },
    {
      "inputs": [
        {
          "internalType": "uint256",
          "name": "_campaignId",
          "type": "uint256"
        }
      ],
      "name": "getCampaignCloseHistory",
      "outputs": [
        {
          "internalType": "bool",
          "name": "isClosed",
          "type": "bool"
        },
        {
          "internalType": "string",
          "name": "closeReason",
          "type": "string"
        },
        {
          "internalType": "bool",
          "name": "goalReached",
          "type": "bool"
        },
        {
          "internalType": "uint256",
          "name": "totalRaised",
          "type": "uint256"
        }
      ],
      "stateMutability": "view",
      "type": "function"
    },
    {
      "inputs": [
        {
          "internalType": "uint256",
          "name": "_campaignId",
          "type": "uint256"
        }
      ],
      "name": "getCampaignStatus",
      "outputs": [
        {
          "internalType": "bool",
          "name": "isActive",
          "type": "bool"
        },
        {
          "internalType": "bool",
          "name": "isSuccessful",
          "type": "bool"
        },
        {
          "internalType": "uint256",
          "name": "remainingTime",
          "type": "uint256"
        },
        {
          "internalType": "string",
          "name": "closeReason",
          "type": "string"
        }
      ],
      "stateMutability": "view",
      "type": "function"
    },
    {
      "inputs": [
        {
          "internalType": "uint256",
          "name": "_campaignId",
          "type": "uint256"
        },
        {
          "internalType": "address",
          "name": "_donor",
          "type": "address"
        }
      ],
      "name": "getDonorInfo",
      "outputs": [
        {
          "internalType": "uint256",
          "name": "totalAmount",
          "type": "uint256"
        },
        {
          "internalType": "uint256",
          "name": "donationCount",
          "type": "uint256"
        },
        {
          "internalType": "uint256",
          "name": "lastDonationTime",
          "type": "uint256"
        }
      ],
      "stateMutability": "view",
      "type": "function"
    },
    {
      "inputs": [
        {
          "internalType": "uint256",
          "name": "_campaignId",
          "type": "uint256"
        }
      ],
      "name": "getDonors",
      "outputs": [
        {
          "components": [
            {
              "internalType": "address",
              "name": "donorAddress",
              "type": "address"
            },
            {
              "internalType": "uint256",
              "name": "totalAmount",
              "type": "uint256"
            },
            {
              "internalType": "uint256",
              "name": "donationCount",
              "type": "uint256"
            },
            {
              "internalType": "uint256",
              "name": "lastDonationTime",
              "type": "uint256"
            }
          ],
          "internalType": "struct CharityDonation.DonorInfo[]",
          "name": "donors",
          "type": "tuple[]"
        }
      ],
      "stateMutability": "view",
      "type": "function"
    },
    {
      "inputs": [
        {
          "internalType": "uint256",
          "name": "",
          "type": "uint256"
        },
        {
          "internalType": "address",
          "name": "",
          "type": "address"
        }
      ],
      "name": "hasDonated",
      "outputs": [
        {
          "internalType": "bool",
          "name": "",
          "type": "bool"
        }
      ],
      "stateMutability": "view",
      "type": "function"
    },
    {
      "inputs": [
        {
          "internalType": "uint256",
          "name": "_campaignId",
          "type": "uint256"
        }
      ],
      "name": "refund",
      "outputs": [],
      "stateMutability": "nonpayable",
      "type": "function"
    },
    {
      "stateMutability": "payable",
      "type": "receive"
    }
  ],
  "bytecode": "0x6080604052348015600f57600080fd5b5060016000819055506145e8806100276000396000f3fe6080604052600436106101025760003560e01c806367f8f8c51161009557806395b9c5721161006457806395b9c572146103e4578063b222f8aa1461040d578063bedb4a801461044c578063cca34b1714610475578063ee1554a3146104b557610142565b806367f8f8c5146103275780636c19e004146103505780637274e30d14610390578063958ec8c8146103bb57610142565b806329516511116100d157806329516511146102445780635312ea8e146102815780635598f8cc146102aa5780635e5d4066146102e757610142565b80630cdd53f61461017d578063141961bc146101995780631e155398146101de578063278ecde11461021b57610142565b36610142576040517f08c379a000000000000000000000000000000000000000000000000000000000815260040161013990612aa3565b60405180910390fd5b6040517f08c379a000000000000000000000000000000000000000000000000000000000815260040161017490612b35565b60405180910390fd5b61019760048036038101906101929190612b9f565b6104f2565b005b3480156101a557600080fd5b506101c060048036038101906101bb9190612bdf565b610b73565b6040516101d599989796959493929190612cf6565b60405180910390f35b3480156101ea57600080fd5b5061020560048036038101906102009190612dbd565b610d2b565b6040516102129190612dfd565b60405180910390f35b34801561022757600080fd5b50610242600480360381019061023d9190612bdf565b610d5a565b005b34801561025057600080fd5b5061026b60048036038101906102669190612bdf565b6111b5565b6040516102789190612f3a565b60405180910390f35b34801561028d57600080fd5b506102a860048036038101906102a39190612bdf565b611420565b005b3480156102b657600080fd5b506102d160048036038101906102cc9190612bdf565b6115d8565b6040516102de919061314c565b60405180910390f35b3480156102f357600080fd5b5061030e60048036038101906103099190612dbd565b6118fe565b60405161031e949392919061316e565b60405180910390f35b34801561033357600080fd5b5061034e60048036038101906103499190613314565b61195b565b005b34801561035c57600080fd5b5061037760048036038101906103729190612bdf565b611cc5565b60405161038794939291906133ab565b60405180910390f35b34801561039c57600080fd5b506103a5611e7d565b6040516103b291906133f7565b60405180910390f35b3480156103c757600080fd5b506103e260048036038101906103dd9190613412565b611e83565b005b3480156103f057600080fd5b5061040b600480360381019061040691906134ce565b6120a8565b005b34801561041957600080fd5b50610434600480360381019061042f9190612dbd565b612182565b6040516104439392919061351b565b60405180910390f35b34801561045857600080fd5b50610473600480360381019061046e9190612bdf565b61223e565b005b34801561048157600080fd5b5061049c60048036038101906104979190612bdf565b612387565b6040516104ac9493929190613552565b60405180910390f35b3480156104c157600080fd5b506104dc60048036038101906104d79190612dbd565b6124ae565b6040516104e991906133f7565b60405180910390f35b6104fa6124d3565b81600554811061053f576040517f08c379a0000000000000000000000000000000000000000000000000000000008152600401610536906135ea565b60405180910390fd5b8260006001600083815260200190815260200160002090508060060160009054906101000a900460ff1615801561057a575080600401544210155b156105bf576105be826040518060400160405280601e81526020017f446561646c696e652072656163686564206175746f6d61746963616c6c790000815250612522565b5b8060060160009054906101000a900460ff1615610611576040517f08c379a000000000000000000000000000000000000000000000000000000000815260040161060890613656565b60405180910390fd5b60008411610654576040517f08c379a000000000000000000000000000000000000000000000000000000000815260040161064b906136c2565b60405180910390fd5b6000600160008781526020019081526020016000209050600073ffffffffffffffffffffffffffffffffffffffff168160020160009054906101000a900473ffffffffffffffffffffffffffffffffffffffff1673ffffffffffffffffffffffffffffffffffffffff160361070a57843414610705576040517f08c379a00000000000000000000000000000000000000000000000000000000081526004016106fc9061372e565b60405180910390fd5b610831565b6000341461074d576040517f08c379a0000000000000000000000000000000000000000000000000000000008152600401610744906137c0565b60405180910390fd5b8060020160009054906101000a900473ffffffffffffffffffffffffffffffffffffffff1673ffffffffffffffffffffffffffffffffffffffff166323b872dd3330886040518463ffffffff1660e01b81526004016107ae939291906137e0565b6020604051808303816000875af11580156107cd573d6000803e3d6000fd5b505050506040513d601f19601f820116820180604052508101906107f1919061382c565b610830576040517f08c379a0000000000000000000000000000000000000000000000000000000008152600401610827906138a5565b60405180910390fd5b5b8481600501600082825461084591906138f4565b92505081905550846002600088815260200190815260200160002060003373ffffffffffffffffffffffffffffffffffffffff1673ffffffffffffffffffffffffffffffffffffffff16815260200190815260200160002060008282546108ac91906138f4565b9250508190555060006004600088815260200190815260200160002060003373ffffffffffffffffffffffffffffffffffffffff1673ffffffffffffffffffffffffffffffffffffffff16815260200190815260200160002090506003600088815260200190815260200160002060003373ffffffffffffffffffffffffffffffffffffffff1673ffffffffffffffffffffffffffffffffffffffff16815260200190815260200160002060009054906101000a900460ff16610a7b57338160000160006101000a81548173ffffffffffffffffffffffffffffffffffffffff021916908373ffffffffffffffffffffffffffffffffffffffff16021790555081600701339080600181540180825580915050600190039060005260206000200160009091909190916101000a81548173ffffffffffffffffffffffffffffffffffffffff021916908373ffffffffffffffffffffffffffffffffffffffff16021790555060016003600089815260200190815260200160002060003373ffffffffffffffffffffffffffffffffffffffff1673ffffffffffffffffffffffffffffffffffffffff16815260200190815260200160002060006101000a81548160ff0219169083151502179055505b85816001016000828254610a8f91906138f4565b925050819055506001816002016000828254610aab91906138f4565b925050819055504281600301819055507fe555da28bdb778f65d22794d88927ebaeca03f7de9d1b7d39245bc8fb5ca078a873388604051610aee93929190613928565b60405180910390a18160060160019054906101000a900460ff16158015610b1d57508160030154826005015410155b15610b6257610b61876040518060400160405280601a81526020017f476f616c2072656163686564206175746f6d61746963616c6c79000000000000815250612522565b5b5050505050610b6f6125e2565b5050565b60016020528060005260406000206000915090508060000160009054906101000a900473ffffffffffffffffffffffffffffffffffffffff1690806001018054610bbc9061398e565b80601f0160208091040260200160405190810160405280929190818152602001828054610be89061398e565b8015610c355780601f10610c0a57610100808354040283529160200191610c35565b820191906000526020600020905b815481529060010190602001808311610c1857829003601f168201915b5050505050908060020160009054906101000a900473ffffffffffffffffffffffffffffffffffffffff16908060030154908060040154908060050154908060060160009054906101000a900460ff16908060060160019054906101000a900460ff1690806008018054610ca89061398e565b80601f0160208091040260200160405190810160405280929190818152602001828054610cd49061398e565b8015610d215780601f10610cf657610100808354040283529160200191610d21565b820191906000526020600020905b815481529060010190602001808311610d0457829003601f168201915b5050505050905089565b60036020528160005260406000206020528060005260406000206000915091509054906101000a900460ff1681565b610d626124d3565b806005548110610da7576040517f08c379a0000000000000000000000000000000000000000000000000000000008152600401610d9e906135ea565b60405180910390fd5b60006001600084815260200190815260200160002090508060060160009054906101000a900460ff16610e0f576040517f08c379a0000000000000000000000000000000000000000000000000000000008152600401610e0690613a0b565b60405180910390fd5b80600301548160050154108015610e3557508060060160019054906101000a900460ff16155b610e74576040517f08c379a0000000000000000000000000000000000000000000000000000000008152600401610e6b90613a77565b60405180910390fd5b60006002600085815260200190815260200160002060003373ffffffffffffffffffffffffffffffffffffffff1673ffffffffffffffffffffffffffffffffffffffff16815260200190815260200160002054905060008111610f0c576040517f08c379a0000000000000000000000000000000000000000000000000000000008152600401610f0390613ae3565b60405180910390fd5b60006002600086815260200190815260200160002060003373ffffffffffffffffffffffffffffffffffffffff1673ffffffffffffffffffffffffffffffffffffffff1681526020019081526020016000208190555060006004600086815260200190815260200160002060003373ffffffffffffffffffffffffffffffffffffffff1673ffffffffffffffffffffffffffffffffffffffff16815260200190815260200160002060010181905550600073ffffffffffffffffffffffffffffffffffffffff168260020160009054906101000a900473ffffffffffffffffffffffffffffffffffffffff1673ffffffffffffffffffffffffffffffffffffffff16036110c55760003373ffffffffffffffffffffffffffffffffffffffff168260405161103990613b34565b60006040518083038185875af1925050503d8060008114611076576040519150601f19603f3d011682016040523d82523d6000602084013e61107b565b606091505b50509050806110bf576040517f08c379a00000000000000000000000000000000000000000000000000000000081526004016110b690613b95565b60405180910390fd5b506111a7565b8160020160009054906101000a900473ffffffffffffffffffffffffffffffffffffffff1673ffffffffffffffffffffffffffffffffffffffff1663a9059cbb33836040518363ffffffff1660e01b8152600401611124929190613bb5565b6020604051808303816000875af1158015611143573d6000803e3d6000fd5b505050506040513d601f19601f82011682018060405250810190611167919061382c565b6111a6576040517f08c379a000000000000000000000000000000000000000000000000000000000815260040161119d90613c2a565b60405180910390fd5b5b5050506111b26125e2565b50565b60608160055481106111fc576040517f08c379a00000000000000000000000000000000000000000000000000000000081526004016111f3906135ea565b60405180910390fd5b600060016000858152602001908152602001600020905060008160070180548060200260200160405190810160405280929190818152602001828054801561129957602002820191906000526020600020905b8160009054906101000a900473ffffffffffffffffffffffffffffffffffffffff1673ffffffffffffffffffffffffffffffffffffffff168152602001906001019080831161124f575b50505050509050805167ffffffffffffffff8111156112bb576112ba6131bd565b5b6040519080825280602002602001820160405280156112f457816020015b6112e16128b8565b8152602001906001900390816112d95790505b50935060005b81518110156114175760046000878152602001908152602001600020600083838151811061132b5761132a613c4a565b5b602002602001015173ffffffffffffffffffffffffffffffffffffffff1673ffffffffffffffffffffffffffffffffffffffff1681526020019081526020016000206040518060800160405290816000820160009054906101000a900473ffffffffffffffffffffffffffffffffffffffff1673ffffffffffffffffffffffffffffffffffffffff1673ffffffffffffffffffffffffffffffffffffffff16815260200160018201548152602001600282015481526020016003820154815250508582815181106113ff576113fe613c4a565b5b602002602001018190525080806001019150506112fa565b50505050919050565b6114286124d3565b80600554811061146d576040517f08c379a0000000000000000000000000000000000000000000000000000000008152600401611464906135ea565b60405180910390fd5b813373ffffffffffffffffffffffffffffffffffffffff166001600083815260200190815260200160002060000160009054906101000a900473ffffffffffffffffffffffffffffffffffffffff1673ffffffffffffffffffffffffffffffffffffffff1614611512576040517f08c379a000000000000000000000000000000000000000000000000000000000815260040161150990613cc5565b60405180910390fd5b60006001600085815260200190815260200160002090508060060160009054906101000a900460ff1661157a576040517f08c379a000000000000000000000000000000000000000000000000000000000815260040161157190613d31565b60405180910390fd5b60008160050154116115c1576040517f08c379a00000000000000000000000000000000000000000000000000000000081526004016115b890613d9d565b60405180910390fd5b6115ca846125ec565b5050506115d56125e2565b50565b6115e06128f6565b816005548110611625576040517f08c379a000000000000000000000000000000000000000000000000000000000815260040161161c906135ea565b60405180910390fd5b60016000848152602001908152602001600020604051806101400160405290816000820160009054906101000a900473ffffffffffffffffffffffffffffffffffffffff1673ffffffffffffffffffffffffffffffffffffffff1673ffffffffffffffffffffffffffffffffffffffff1681526020016001820180546116aa9061398e565b80601f01602080910402602001604051908101604052809291908181526020018280546116d69061398e565b80156117235780601f106116f857610100808354040283529160200191611723565b820191906000526020600020905b81548152906001019060200180831161170657829003601f168201915b505050505081526020016002820160009054906101000a900473ffffffffffffffffffffffffffffffffffffffff1673ffffffffffffffffffffffffffffffffffffffff1673ffffffffffffffffffffffffffffffffffffffff1681526020016003820154815260200160048201548152602001600582015481526020016006820160009054906101000a900460ff161515151581526020016006820160019054906101000a900460ff161515151581526020016007820180548060200260200160405190810160405280929190818152602001828054801561185b57602002820191906000526020600020905b8160009054906101000a900473ffffffffffffffffffffffffffffffffffffffff1673ffffffffffffffffffffffffffffffffffffffff1681526020019060010190808311611811575b505050505081526020016008820180546118749061398e565b80601f01602080910402602001604051908101604052809291908181526020018280546118a09061398e565b80156118ed5780601f106118c2576101008083540402835291602001916118ed565b820191906000526020600020905b8154815290600101906020018083116118d057829003601f168201915b505050505081525050915050919050565b6004602052816000526040600020602052806000526040600020600091509150508060000160009054906101000a900473ffffffffffffffffffffffffffffffffffffffff16908060010154908060020154908060030154905084565b6119636124d3565b60008551116119a7576040517f08c379a000000000000000000000000000000000000000000000000000000000815260040161199e90613e09565b60405180910390fd5b600083116119ea576040517f08c379a00000000000000000000000000000000000000000000000000000000081526004016119e190613e75565b60405180910390fd5b60008211611a2d576040517f08c379a0000000000000000000000000000000000000000000000000000000008152600401611a2490613ee1565b60405180910390fd5b6301e13380821115611a74576040517f08c379a0000000000000000000000000000000000000000000000000000000008152600401611a6b90613f4d565b60405180910390fd5b6040518061014001604052803373ffffffffffffffffffffffffffffffffffffffff1681526020018681526020018573ffffffffffffffffffffffffffffffffffffffff1681526020018481526020018342611ad091906138f4565b8152602001600081526020016000151581526020018215158152602001600067ffffffffffffffff811115611b0857611b076131bd565b5b604051908082528060200260200182016040528015611b365781602001602082028036833780820191505090505b5081526020016040518060200160405280600081525081525060016000600554815260200190815260200160002060008201518160000160006101000a81548173ffffffffffffffffffffffffffffffffffffffff021916908373ffffffffffffffffffffffffffffffffffffffff1602179055506020820151816001019081611bc09190614119565b5060408201518160020160006101000a81548173ffffffffffffffffffffffffffffffffffffffff021916908373ffffffffffffffffffffffffffffffffffffffff160217905550606082015181600301556080820151816004015560a0820151816005015560c08201518160060160006101000a81548160ff02191690831515021790555060e08201518160060160016101000a81548160ff021916908315150217905550610100820151816007019080519060200190611c83929190612979565b50610120820151816008019081611c9a9190614119565b5090505060056000815480929190611cb1906141eb565b9190505550611cbe6125e2565b5050505050565b60008060006060846005548110611d11576040517f08c379a0000000000000000000000000000000000000000000000000000000008152600401611d08906135ea565b60405180910390fd5b600060016000888152602001908152602001600020905060008160060160009054906101000a900460ff1680611d4b575081600401544210155b90508015965081600301548260050154101580611d7657508160060160019054906101000a900460ff165b9550816008018054611d879061398e565b80601f0160208091040260200160405190810160405280929190818152602001828054611db39061398e565b8015611e005780601f10611dd557610100808354040283529160200191611e00565b820191906000526020600020905b815481529060010190602001808311611de357829003601f168201915b505050505093508160060160009054906101000a900460ff16158015611e2a575081600401544210155b15611e4b576040518060600160405280602181526020016145926021913993505b8160040154421015611e6e57428260040154611e679190614233565b9450611e73565b600094505b5050509193509193565b60055481565b611e8b6124d3565b816005548110611ed0576040517f08c379a0000000000000000000000000000000000000000000000000000000008152600401611ec7906135ea565b60405180910390fd5b60006001600085815260200190815260200160002090508060060160009054906101000a900460ff1615611f39576040517f08c379a0000000000000000000000000000000000000000000000000000000008152600401611f30906142b3565b60405180910390fd5b8060000160009054906101000a900473ffffffffffffffffffffffffffffffffffffffff1673ffffffffffffffffffffffffffffffffffffffff163373ffffffffffffffffffffffffffffffffffffffff1614611fd8578060040154421015611fd7576040517f08c379a0000000000000000000000000000000000000000000000000000000008152600401611fce90614345565b60405180910390fd5b5b60008160000160009054906101000a900473ffffffffffffffffffffffffffffffffffffffff1673ffffffffffffffffffffffffffffffffffffffff163373ffffffffffffffffffffffffffffffffffffffff161461206c576040518060400160405280601081526020017f446561646c696e6520726561636865640000000000000000000000000000000081525061208d565b8360405160200161207d91906143ed565b6040516020818303038152906040525b90506120998582612522565b5050506120a46125e2565b5050565b6120b06124d3565b60005b828290508110156121755760008383838181106120d3576120d2613c4a565b5b9050602002013590506005548110156121675760006001600083815260200190815260200160002090508060060160009054906101000a900460ff16158015612120575080600401544210155b1561216557612164826040518060400160405280601881526020017f446561646c696e65207265616368656420286261746368290000000000000000815250612522565b5b505b5080806001019150506120b3565b5061217e6125e2565b5050565b60008060008460055481106121cc576040517f08c379a00000000000000000000000000000000000000000000000000000000081526004016121c3906135ea565b60405180910390fd5b60006004600088815260200190815260200160002060008773ffffffffffffffffffffffffffffffffffffffff1673ffffffffffffffffffffffffffffffffffffffff168152602001908152602001600020905080600101548160020154826003015494509450945050509250925092565b6122466124d3565b80600554811061228b576040517f08c379a0000000000000000000000000000000000000000000000000000000008152600401612282906135ea565b60405180910390fd5b60006001600084815260200190815260200160002090508060060160009054906101000a900460ff16156122f4576040517f08c379a00000000000000000000000000000000000000000000000000000000081526004016122eb906142b3565b60405180910390fd5b806004015442101561233b576040517f08c379a00000000000000000000000000000000000000000000000000000000081526004016123329061445b565b60405180910390fd5b61237a836040518060400160405280601081526020017f446561646c696e65207265616368656400000000000000000000000000000000815250612522565b50506123846125e2565b50565b600060606000808460055481106123d3576040517f08c379a00000000000000000000000000000000000000000000000000000000081526004016123ca906135ea565b60405180910390fd5b60006001600088815260200190815260200160002090508060060160009054906101000a900460ff1681600801826003015483600501541015836005015482805461241d9061398e565b80601f01602080910402602001604051908101604052809291908181526020018280546124499061398e565b80156124965780601f1061246b57610100808354040283529160200191612496565b820191906000526020600020905b81548152906001019060200180831161247957829003601f168201915b50505050509250955095509550955050509193509193565b6002602052816000526040600020602052806000526040600020600091509150505481565b600260005403612518576040517f08c379a000000000000000000000000000000000000000000000000000000000815260040161250f906144c7565b60405180910390fd5b6002600081905550565b600060016000848152602001908152602001600020905060018160060160006101000a81548160ff021916908315150217905550818160080190816125679190614119565b50600081600301548260050154101590507f136f316573c3466cfeee050d7f936954048530f5555d8b8572bd096e73c9c3bf8482856040516125ab939291906144e7565b60405180910390a180806125cd57508160060160019054906101000a900460ff165b156125dc576125db846125ec565b5b50505050565b6001600081905550565b600060016000838152602001908152602001600020905060008160050154905060008111156128b35760008260050181905550600073ffffffffffffffffffffffffffffffffffffffff168260020160009054906101000a900473ffffffffffffffffffffffffffffffffffffffff1673ffffffffffffffffffffffffffffffffffffffff160361274d5760008260000160009054906101000a900473ffffffffffffffffffffffffffffffffffffffff1673ffffffffffffffffffffffffffffffffffffffff16826040516126c190613b34565b60006040518083038185875af1925050503d80600081146126fe576040519150601f19603f3d011682016040523d82523d6000602084013e612703565b606091505b5050905080612747576040517f08c379a000000000000000000000000000000000000000000000000000000000815260040161273e90614571565b60405180910390fd5b50612853565b8160020160009054906101000a900473ffffffffffffffffffffffffffffffffffffffff1673ffffffffffffffffffffffffffffffffffffffff1663a9059cbb8360000160009054906101000a900473ffffffffffffffffffffffffffffffffffffffff16836040518363ffffffff1660e01b81526004016127d0929190613bb5565b6020604051808303816000875af11580156127ef573d6000803e3d6000fd5b505050506040513d601f19601f82011682018060405250810190612813919061382c565b612852576040517f08c379a0000000000000000000000000000000000000000000000000000000008152600401612849906138a5565b60405180910390fd5b5b7ff440aec6b52895984d061d622e6edeba6210f7c3e059be920663140c084560d7838360000160009054906101000a900473ffffffffffffffffffffffffffffffffffffffff16836040516128aa93929190613928565b60405180910390a15b505050565b6040518060800160405280600073ffffffffffffffffffffffffffffffffffffffff1681526020016000815260200160008152602001600081525090565b604051806101400160405280600073ffffffffffffffffffffffffffffffffffffffff16815260200160608152602001600073ffffffffffffffffffffffffffffffffffffffff16815260200160008152602001600081526020016000815260200160001515815260200160001515815260200160608152602001606081525090565b8280548282559060005260206000209081019282156129f2579160200282015b828111156129f15782518260006101000a81548173ffffffffffffffffffffffffffffffffffffffff021916908373ffffffffffffffffffffffffffffffffffffffff16021790555091602001919060010190612999565b5b5090506129ff9190612a03565b5090565b5b80821115612a1c576000816000905550600101612a04565b5090565b600082825260208201905092915050565b7f446972656374207472616e7366657273206e6f7420616c6c6f7765642e20557360008201527f6520646f6e6174652066756e6374696f6e2e0000000000000000000000000000602082015250565b6000612a8d603283612a20565b9150612a9882612a31565b604082019050919050565b60006020820190508181036000830152612abc81612a80565b9050919050565b7f46756e6374696f6e206e6f7420666f756e642e2055736520646f6e617465206660008201527f756e6374696f6e20666f7220646f6e6174696f6e732e00000000000000000000602082015250565b6000612b1f603683612a20565b9150612b2a82612ac3565b604082019050919050565b60006020820190508181036000830152612b4e81612b12565b9050919050565b6000604051905090565b600080fd5b600080fd5b6000819050919050565b612b7c81612b69565b8114612b8757600080fd5b50565b600081359050612b9981612b73565b92915050565b60008060408385031215612bb657612bb5612b5f565b5b6000612bc485828601612b8a565b9250506020612bd585828601612b8a565b9150509250929050565b600060208284031215612bf557612bf4612b5f565b5b6000612c0384828501612b8a565b91505092915050565b600073ffffffffffffffffffffffffffffffffffffffff82169050919050565b6000612c3782612c0c565b9050919050565b612c4781612c2c565b82525050565b600081519050919050565b60005b83811015612c76578082015181840152602081019050612c5b565b60008484015250505050565b6000601f19601f8301169050919050565b6000612c9e82612c4d565b612ca88185612a20565b9350612cb8818560208601612c58565b612cc181612c82565b840191505092915050565b612cd581612b69565b82525050565b60008115159050919050565b612cf081612cdb565b82525050565b600061012082019050612d0c600083018c612c3e565b8181036020830152612d1e818b612c93565b9050612d2d604083018a612c3e565b612d3a6060830189612ccc565b612d476080830188612ccc565b612d5460a0830187612ccc565b612d6160c0830186612ce7565b612d6e60e0830185612ce7565b818103610100830152612d818184612c93565b90509a9950505050505050505050565b612d9a81612c2c565b8114612da557600080fd5b50565b600081359050612db781612d91565b92915050565b60008060408385031215612dd457612dd3612b5f565b5b6000612de285828601612b8a565b9250506020612df385828601612da8565b9150509250929050565b6000602082019050612e126000830184612ce7565b92915050565b600081519050919050565b600082825260208201905092915050565b6000819050602082019050919050565b612e4d81612c2c565b82525050565b612e5c81612b69565b82525050565b608082016000820151612e786000850182612e44565b506020820151612e8b6020850182612e53565b506040820151612e9e6040850182612e53565b506060820151612eb16060850182612e53565b50505050565b6000612ec38383612e62565b60808301905092915050565b6000602082019050919050565b6000612ee782612e18565b612ef18185612e23565b9350612efc83612e34565b8060005b83811015612f2d578151612f148882612eb7565b9750612f1f83612ecf565b925050600181019050612f00565b5085935050505092915050565b60006020820190508181036000830152612f548184612edc565b905092915050565b600082825260208201905092915050565b6000612f7882612c4d565b612f828185612f5c565b9350612f92818560208601612c58565b612f9b81612c82565b840191505092915050565b612faf81612cdb565b82525050565b600081519050919050565b600082825260208201905092915050565b6000819050602082019050919050565b6000612fed8383612e44565b60208301905092915050565b6000602082019050919050565b600061301182612fb5565b61301b8185612fc0565b935061302683612fd1565b8060005b8381101561305757815161303e8882612fe1565b975061304983612ff9565b92505060018101905061302a565b5085935050505092915050565b60006101408301600083015161307d6000860182612e44565b50602083015184820360208601526130958282612f6d565b91505060408301516130aa6040860182612e44565b5060608301516130bd6060860182612e53565b5060808301516130d06080860182612e53565b5060a08301516130e360a0860182612e53565b5060c08301516130f660c0860182612fa6565b5060e083015161310960e0860182612fa6565b506101008301518482036101008601526131238282613006565b91505061012083015184820361012086015261313f8282612f6d565b9150508091505092915050565b600060208201905081810360008301526131668184613064565b905092915050565b60006080820190506131836000830187612c3e565b6131906020830186612ccc565b61319d6040830185612ccc565b6131aa6060830184612ccc565b95945050505050565b600080fd5b600080fd5b7f4e487b7100000000000000000000000000000000000000000000000000000000600052604160045260246000fd5b6131f582612c82565b810181811067ffffffffffffffff82111715613214576132136131bd565b5b80604052505050565b6000613227612b55565b905061323382826131ec565b919050565b600067ffffffffffffffff821115613253576132526131bd565b5b61325c82612c82565b9050602081019050919050565b82818337600083830152505050565b600061328b61328684613238565b61321d565b9050828152602081018484840111156132a7576132a66131b8565b5b6132b2848285613269565b509392505050565b600082601f8301126132cf576132ce6131b3565b5b81356132df848260208601613278565b91505092915050565b6132f181612cdb565b81146132fc57600080fd5b50565b60008135905061330e816132e8565b92915050565b600080600080600060a086880312156133305761332f612b5f565b5b600086013567ffffffffffffffff81111561334e5761334d612b64565b5b61335a888289016132ba565b955050602061336b88828901612da8565b945050604061337c88828901612b8a565b935050606061338d88828901612b8a565b925050608061339e888289016132ff565b9150509295509295909350565b60006080820190506133c06000830187612ce7565b6133cd6020830186612ce7565b6133da6040830185612ccc565b81810360608301526133ec8184612c93565b905095945050505050565b600060208201905061340c6000830184612ccc565b92915050565b6000806040838503121561342957613428612b5f565b5b600061343785828601612b8a565b925050602083013567ffffffffffffffff81111561345857613457612b64565b5b613464858286016132ba565b9150509250929050565b600080fd5b600080fd5b60008083601f84011261348e5761348d6131b3565b5b8235905067ffffffffffffffff8111156134ab576134aa61346e565b5b6020830191508360208202830111156134c7576134c6613473565b5b9250929050565b600080602083850312156134e5576134e4612b5f565b5b600083013567ffffffffffffffff81111561350357613502612b64565b5b61350f85828601613478565b92509250509250929050565b60006060820190506135306000830186612ccc565b61353d6020830185612ccc565b61354a6040830184612ccc565b949350505050565b60006080820190506135676000830187612ce7565b81810360208301526135798186612c93565b90506135886040830185612ce7565b6135956060830184612ccc565b95945050505050565b7f43616d706169676e20646f6573206e6f74206578697374000000000000000000600082015250565b60006135d4601783612a20565b91506135df8261359e565b602082019050919050565b60006020820190508181036000830152613603816135c7565b9050919050565b7f43616d706169676e20697320636c6f7365640000000000000000000000000000600082015250565b6000613640601283612a20565b915061364b8261360a565b602082019050919050565b6000602082019050818103600083015261366f81613633565b9050919050565b7f416d6f756e74206d7573742062652067726561746572207468616e2030000000600082015250565b60006136ac601d83612a20565b91506136b782613676565b602082019050919050565b600060208201905081810360008301526136db8161369f565b9050919050565b7f45544820616d6f756e74206d69736d6174636800000000000000000000000000600082015250565b6000613718601383612a20565b9150613723826136e2565b602082019050919050565b600060208201905081810360008301526137478161370b565b9050919050565b7f446f206e6f742073656e642045544820666f7220746f6b656e20646f6e61746960008201527f6f6e000000000000000000000000000000000000000000000000000000000000602082015250565b60006137aa602283612a20565b91506137b58261374e565b604082019050919050565b600060208201905081810360008301526137d98161379d565b9050919050565b60006060820190506137f56000830186612c3e565b6138026020830185612c3e565b61380f6040830184612ccc565b949350505050565b600081519050613826816132e8565b92915050565b60006020828403121561384257613841612b5f565b5b600061385084828501613817565b91505092915050565b7f546f6b656e207472616e73666572206661696c65640000000000000000000000600082015250565b600061388f601583612a20565b915061389a82613859565b602082019050919050565b600060208201905081810360008301526138be81613882565b9050919050565b7f4e487b7100000000000000000000000000000000000000000000000000000000600052601160045260246000fd5b60006138ff82612b69565b915061390a83612b69565b9250828201905080821115613922576139216138c5565b5b92915050565b600060608201905061393d6000830186612ccc565b61394a6020830185612c3e565b6139576040830184612ccc565b949350505050565b7f4e487b7100000000000000000000000000000000000000000000000000000000600052602260045260246000fd5b600060028204905060018216806139a657607f821691505b6020821081036139b9576139b861395f565b5b50919050565b7f43616d706169676e206e6f7420636c6f73656420796574000000000000000000600082015250565b60006139f5601783612a20565b9150613a00826139bf565b602082019050919050565b60006020820190508181036000830152613a24816139e8565b9050919050565b7f43616d706169676e20776173207375636365737366756c000000000000000000600082015250565b6000613a61601783612a20565b9150613a6c82613a2b565b602082019050919050565b60006020820190508181036000830152613a9081613a54565b9050919050565b7f4e6f20646f6e6174696f6e20746f20726566756e640000000000000000000000600082015250565b6000613acd601583612a20565b9150613ad882613a97565b602082019050919050565b60006020820190508181036000830152613afc81613ac0565b9050919050565b600081905092915050565b50565b6000613b1e600083613b03565b9150613b2982613b0e565b600082019050919050565b6000613b3f82613b11565b9150819050919050565b7f45544820726566756e64206661696c6564000000000000000000000000000000600082015250565b6000613b7f601183612a20565b9150613b8a82613b49565b602082019050919050565b60006020820190508181036000830152613bae81613b72565b9050919050565b6000604082019050613bca6000830185612c3e565b613bd76020830184612ccc565b9392505050565b7f546f6b656e20726566756e64206661696c656400000000000000000000000000600082015250565b6000613c14601383612a20565b9150613c1f82613bde565b602082019050919050565b60006020820190508181036000830152613c4381613c07565b9050919050565b7f4e487b7100000000000000000000000000000000000000000000000000000000600052603260045260246000fd5b7f4f6e6c792063726561746f7220616c6c6f776564000000000000000000000000600082015250565b6000613caf601483612a20565b9150613cba82613c79565b602082019050919050565b60006020820190508181036000830152613cde81613ca2565b9050919050565b7f43616d706169676e206d75737420626520636c6f736564206669727374000000600082015250565b6000613d1b601d83612a20565b9150613d2682613ce5565b602082019050919050565b60006020820190508181036000830152613d4a81613d0e565b9050919050565b7f4e6f2066756e647320746f207769746864726177000000000000000000000000600082015250565b6000613d87601483612a20565b9150613d9282613d51565b602082019050919050565b60006020820190508181036000830152613db681613d7a565b9050919050565b7f5469746c652063616e6e6f7420626520656d7074790000000000000000000000600082015250565b6000613df3601583612a20565b9150613dfe82613dbd565b602082019050919050565b60006020820190508181036000830152613e2281613de6565b9050919050565b7f476f616c206d7573742062652067726561746572207468616e20300000000000600082015250565b6000613e5f601b83612a20565b9150613e6a82613e29565b602082019050919050565b60006020820190508181036000830152613e8e81613e52565b9050919050565b7f4475726174696f6e206d7573742062652067726561746572207468616e203000600082015250565b6000613ecb601f83612a20565b9150613ed682613e95565b602082019050919050565b60006020820190508181036000830152613efa81613ebe565b9050919050565b7f4475726174696f6e20746f6f206c6f6e67000000000000000000000000000000600082015250565b6000613f37601183612a20565b9150613f4282613f01565b602082019050919050565b60006020820190508181036000830152613f6681613f2a565b9050919050565b60008190508160005260206000209050919050565b60006020601f8301049050919050565b600082821b905092915050565b600060088302613fcf7fffffffffffffffffffffffffffffffffffffffffffffffffffffffffffffffff82613f92565b613fd98683613f92565b95508019841693508086168417925050509392505050565b6000819050919050565b600061401661401161400c84612b69565b613ff1565b612b69565b9050919050565b6000819050919050565b61403083613ffb565b61404461403c8261401d565b848454613f9f565b825550505050565b600090565b61405961404c565b614064818484614027565b505050565b5b818110156140885761407d600082614051565b60018101905061406a565b5050565b601f8211156140cd5761409e81613f6d565b6140a784613f82565b810160208510156140b6578190505b6140ca6140c285613f82565b830182614069565b50505b505050565b600082821c905092915050565b60006140f0600019846008026140d2565b1980831691505092915050565b600061410983836140df565b9150826002028217905092915050565b61412282612c4d565b67ffffffffffffffff81111561413b5761413a6131bd565b5b614145825461398e565b61415082828561408c565b600060209050601f8311600181146141835760008415614171578287015190505b61417b85826140fd565b8655506141e3565b601f19841661419186613f6d565b60005b828110156141b957848901518255600182019150602085019450602081019050614194565b868310156141d657848901516141d2601f8916826140df565b8355505b6001600288020188555050505b505050505050565b60006141f682612b69565b91507fffffffffffffffffffffffffffffffffffffffffffffffffffffffffffffffff8203614228576142276138c5565b5b600182019050919050565b600061423e82612b69565b915061424983612b69565b9250828203905081811115614261576142606138c5565b5b92915050565b7f43616d706169676e20616c726561647920636c6f736564000000000000000000600082015250565b600061429d601783612a20565b91506142a882614267565b602082019050919050565b600060208201905081810360008301526142cc81614290565b9050919050565b7f4f6e6c792063726561746f722063616e20636c6f7365206265666f726520646560008201527f61646c696e650000000000000000000000000000000000000000000000000000602082015250565b600061432f602683612a20565b915061433a826142d3565b604082019050919050565b6000602082019050818103600083015261435e81614322565b9050919050565b600081905092915050565b7f436c6f7365642062792063726561746f723a2000000000000000000000000000600082015250565b60006143a6601383614365565b91506143b182614370565b601382019050919050565b60006143c782612c4d565b6143d18185614365565b93506143e1818560208601612c58565b80840191505092915050565b60006143f882614399565b915061440482846143bc565b915081905092915050565b7f43616d706169676e206e6f742065787069726564207965740000000000000000600082015250565b6000614445601883612a20565b91506144508261440f565b602082019050919050565b6000602082019050818103600083015261447481614438565b9050919050565b7f5265656e7472616e637947756172643a207265656e7472616e742063616c6c00600082015250565b60006144b1601f83612a20565b91506144bc8261447b565b602082019050919050565b600060208201905081810360008301526144e0816144a4565b9050919050565b60006060820190506144fc6000830186612ccc565b6145096020830185612ce7565b818103604083015261451b8184612c93565b9050949350505050565b7f455448207472616e73666572206661696c656400000000000000000000000000600082015250565b600061455b601383612a20565b915061456682614525565b602082019050919050565b6000602082019050818103600083015261458a8161454e565b905091905056fe446561646c696e6520706173736564202870656e64696e6720636c6f7375726529a264697066735822122079025df4ead1044a06d63b086fca37d917712eaa0bda69c22e9945487cc068d564736f6c634300081c0033",
  "linkReferences": {},
  "deployedLinkReferences": {}
}