{
  "_format": "hh-sol-artifact-1",
  "contractName": "CharityDonation",
  "sourceName": "contracts/CharityDonation.sol",
  "abi": [
    {
      "inputs": [
        {
          "internalType": "address",
          "name": "_lendingPool",
          "type": "address"
        },
        {
          "internalType": "address",
          "name": "_platformFeeRecipient",
          "type": "address"
        }
      ],
      "stateMutability": "nonpayable",
      "type": "constructor"
    },
    {
      "inputs": [
        {
          "internalType": "uint256",
          "name": "campaignId",
          "type": "uint256"
        },
        {
          "internalType": "address",
          "name": "donor",
          "type": "address"
        }
      ],
      "name": "AlreadyRefunded",
      "type": "error"
    },
    {
      "inputs": [],
      "name": "AmountMustBeGreaterThanZero",
      "type": "error"
    },
    {
      "inputs": [
        {
          "internalType": "uint256",
          "name": "campaignId",
          "type": "uint256"
        }
      ],
      "name": "CampaignAlreadyClosed",
      "type": "error"
    },
    {
      "inputs": [
        {
          "internalType": "uint256",
          "name": "campaignId",
          "type": "uint256"
        },
        {
          "internalType": "uint256",
          "name": "deadline",
          "type": "uint256"
        },
        {
          "internalType": "uint256",
          "name": "blockTimestamp",
          "type": "uint256"
        }
      ],
      "name": "CampaignHasEnded",
      "type": "error"
    },
    {
      "inputs": [
        {
          "internalType": "uint256",
          "name": "campaignId",
          "type": "uint256"
        }
      ],
      "name": "CampaignIsClosed",
      "type": "error"
    },
    {
      "inputs": [],
      "name": "CampaignNotOverOrIsSuccessful",
      "type": "error"
    },
    {
      "inputs": [],
      "name": "DurationMustBeGreaterThanZero",
      "type": "error"
    },
    {
      "inputs": [],
      "name": "EthSentToTokenCampaign",
      "type": "error"
    },
    {
      "inputs": [],
      "name": "GoalMustBeGreaterThanZero",
      "type": "error"
    },
    {
      "inputs": [],
      "name": "InvalidAddress",
      "type": "error"
    },
    {
      "inputs": [
        {
          "internalType": "uint256",
          "name": "required",
          "type": "uint256"
        },
        {
          "internalType": "uint256",
          "name": "sent",
          "type": "uint256"
        }
      ],
      "name": "MismatchedEthAmount",
      "type": "error"
    },
    {
      "inputs": [
        {
          "internalType": "address",
          "name": "donor",
          "type": "address"
        }
      ],
      "name": "NoDonationToRefund",
      "type": "error"
    },
    {
      "inputs": [
        {
          "internalType": "uint256",
          "name": "campaignId",
          "type": "uint256"
        }
      ],
      "name": "NoRefundForSuccessfulOrUnlimitedCampaign",
      "type": "error"
    },
    {
      "inputs": [
        {
          "internalType": "address",
          "name": "sender",
          "type": "address"
        }
      ],
      "name": "NotOwner",
      "type": "error"
    },
    {
      "inputs": [
        {
          "internalType": "address",
          "name": "sender",
          "type": "address"
        },
        {
          "internalType": "address",
          "name": "creator",
          "type": "address"
        }
      ],
      "name": "OnlyCreatorCanCloseBeforeDeadline",
      "type": "error"
    },
    {
      "inputs": [
        {
          "internalType": "address",
          "name": "token",
          "type": "address"
        },
        {
          "internalType": "address",
          "name": "from",
          "type": "address"
        },
        {
          "internalType": "address",
          "name": "to",
          "type": "address"
        },
        {
          "internalType": "uint256",
          "name": "amount",
          "type": "uint256"
        }
      ],
      "name": "TokenTransferFailed",
      "type": "error"
    },
    {
      "anonymous": false,
      "inputs": [
        {
          "indexed": true,
          "internalType": "uint256",
          "name": "campaignId",
          "type": "uint256"
        },
        {
          "indexed": false,
          "internalType": "bool",
          "name": "reachedGoal",
          "type": "bool"
        }
      ],
      "name": "CampaignClosed",
      "type": "event"
    },
    {
      "anonymous": false,
      "inputs": [
        {
          "indexed": true,
          "internalType": "uint256",
          "name": "campaignId",
          "type": "uint256"
        },
        {
          "indexed": true,
          "internalType": "address",
          "name": "creator",
          "type": "address"
        },
        {
          "indexed": false,
          "internalType": "string",
          "name": "title",
          "type": "string"
        },
        {
          "indexed": false,
          "internalType": "uint256",
          "name": "goal",
          "type": "uint256"
        },
        {
          "indexed": false,
          "internalType": "uint256",
          "name": "deadline",
          "type": "uint256"
        }
      ],
      "name": "CampaignCreated",
      "type": "event"
    },
    {
      "anonymous": false,
      "inputs": [
        {
          "indexed": true,
          "internalType": "uint256",
          "name": "campaignId",
          "type": "uint256"
        },
        {
          "indexed": true,
          "internalType": "address",
          "name": "donor",
          "type": "address"
        },
        {
          "indexed": false,
          "internalType": "uint256",
          "name": "amount",
          "type": "uint256"
        }
      ],
      "name": "DonationMade",
      "type": "event"
    },
    {
      "anonymous": false,
      "inputs": [
        {
          "indexed": false,
          "internalType": "address",
          "name": "oldRecipient",
          "type": "address"
        },
        {
          "indexed": false,
          "internalType": "address",
          "name": "newRecipient",
          "type": "address"
        }
      ],
      "name": "FeeRecipientUpdated",
      "type": "event"
    },
    {
      "anonymous": false,
      "inputs": [
        {
          "indexed": true,
          "internalType": "uint256",
          "name": "campaignId",
          "type": "uint256"
        },
        {
          "indexed": true,
          "internalType": "address",
          "name": "creator",
          "type": "address"
        },
        {
          "indexed": false,
          "internalType": "uint256",
          "name": "principal",
          "type": "uint256"
        },
        {
          "indexed": false,
          "internalType": "uint256",
          "name": "interestToPlatform",
          "type": "uint256"
        }
      ],
      "name": "FundsWithdrawn",
      "type": "event"
    },
    {
      "anonymous": false,
      "inputs": [
        {
          "indexed": false,
          "internalType": "address",
          "name": "oldPool",
          "type": "address"
        },
        {
          "indexed": false,
          "internalType": "address",
          "name": "newPool",
          "type": "address"
        }
      ],
      "name": "LendingPoolUpdated",
      "type": "event"
    },
    {
      "anonymous": false,
      "inputs": [
        {
          "indexed": true,
          "internalType": "uint256",
          "name": "campaignId",
          "type": "uint256"
        },
        {
          "indexed": true,
          "internalType": "address",
          "name": "donor",
          "type": "address"
        },
        {
          "indexed": false,
          "internalType": "uint256",
          "name": "amount",
          "type": "uint256"
        }
      ],
      "name": "RefundIssued",
      "type": "event"
    },
    {
      "inputs": [],
      "name": "campaignCount",
      "outputs": [
        {
          "internalType": "uint256",
          "name": "",
          "type": "uint256"
        }
      ],
      "stateMutability": "view",
      "type": "function"
    },
    {
      "inputs": [
        {
          "internalType": "uint256",
          "name": "",
          "type": "uint256"
        }
      ],
      "name": "campaigns",
      "outputs": [
        {
          "internalType": "address",
          "name": "creator",
          "type": "address"
        },
        {
          "internalType": "string",
          "name": "title",
          "type": "string"
        },
        {
          "internalType": "address",
          "name": "tokenAddress",
          "type": "address"
        },
        {
          "internalType": "uint256",
          "name": "goal",
          "type": "uint256"
        },
        {
          "internalType": "uint256",
          "name": "deadline",
          "type": "uint256"
        },
        {
          "internalType": "uint256",
          "name": "totalDonated",
          "type": "uint256"
        },
        {
          "internalType": "bool",
          "name": "isClosed",
          "type": "bool"
        },
        {
          "internalType": "bool",
          "name": "isNoLimit",
          "type": "bool"
        }
      ],
      "stateMutability": "view",
      "type": "function"
    },
    {
      "inputs": [
        {
          "internalType": "uint256",
          "name": "_campaignId",
          "type": "uint256"
        }
      ],
      "name": "closeCampaign",
      "outputs": [],
      "stateMutability": "nonpayable",
      "type": "function"
    },
    {
      "inputs": [
        {
          "internalType": "string",
          "name": "_title",
          "type": "string"
        },
        {
          "internalType": "address",
          "name": "_tokenAddress",
          "type": "address"
        },
        {
          "internalType": "uint256",
          "name": "_goal",
          "type": "uint256"
        },
        {
          "internalType": "uint256",
          "name": "_duration",
          "type": "uint256"
        },
        {
          "internalType": "bool",
          "name": "_isNoLimit",
          "type": "bool"
        }
      ],
      "name": "createCampaign",
      "outputs": [],
      "stateMutability": "nonpayable",
      "type": "function"
    },
    {
      "inputs": [
        {
          "internalType": "uint256",
          "name": "_campaignId",
          "type": "uint256"
        },
        {
          "internalType": "uint256",
          "name": "_amount",
          "type": "uint256"
        }
      ],
      "name": "donate",
      "outputs": [],
      "stateMutability": "payable",
      "type": "function"
    },
    {
      "inputs": [
        {
          "internalType": "uint256",
          "name": "",
          "type": "uint256"
        },
        {
          "internalType": "address",
          "name": "",
          "type": "address"
        }
      ],
      "name": "donations",
      "outputs": [
        {
          "internalType": "uint256",
          "name": "",
          "type": "uint256"
        }
      ],
      "stateMutability": "view",
      "type": "function"
    },
    {
      "inputs": [
        {
          "internalType": "uint256",
          "name": "_campaignId",
          "type": "uint256"
        }
      ],
      "name": "getCampaignStatus",
      "outputs": [
        {
          "internalType": "bool",
          "name": "isActive",
          "type": "bool"
        },
        {
          "internalType": "bool",
          "name": "isSuccessful",
          "type": "bool"
        },
        {
          "internalType": "uint256",
          "name": "remainingTime",
          "type": "uint256"
        }
      ],
      "stateMutability": "view",
      "type": "function"
    },
    {
      "inputs": [
        {
          "internalType": "uint256",
          "name": "_campaignId",
          "type": "uint256"
        }
      ],
      "name": "getDonors",
      "outputs": [
        {
          "internalType": "address[]",
          "name": "",
          "type": "address[]"
        }
      ],
      "stateMutability": "view",
      "type": "function"
    },
    {
      "inputs": [
        {
          "internalType": "uint256",
          "name": "",
          "type": "uint256"
        },
        {
          "internalType": "address",
          "name": "",
          "type": "address"
        }
      ],
      "name": "hasDonated",
      "outputs": [
        {
          "internalType": "bool",
          "name": "",
          "type": "bool"
        }
      ],
      "stateMutability": "view",
      "type": "function"
    },
    {
      "inputs": [
        {
          "internalType": "uint256",
          "name": "",
          "type": "uint256"
        }
      ],
      "name": "lastUpdateTime",
      "outputs": [
        {
          "internalType": "uint256",
          "name": "",
          "type": "uint256"
        }
      ],
      "stateMutability": "view",
      "type": "function"
    },
    {
      "inputs": [],
      "name": "lendingPool",
      "outputs": [
        {
          "internalType": "address",
          "name": "",
          "type": "address"
        }
      ],
      "stateMutability": "view",
      "type": "function"
    },
    {
      "inputs": [],
      "name": "owner",
      "outputs": [
        {
          "internalType": "address",
          "name": "",
          "type": "address"
        }
      ],
      "stateMutability": "view",
      "type": "function"
    },
    {
      "inputs": [],
      "name": "platformFeeRecipient",
      "outputs": [
        {
          "internalType": "address",
          "name": "",
          "type": "address"
        }
      ],
      "stateMutability": "view",
      "type": "function"
    },
    {
      "inputs": [
        {
          "internalType": "uint256",
          "name": "_campaignId",
          "type": "uint256"
        }
      ],
      "name": "refund",
      "outputs": [],
      "stateMutability": "nonpayable",
      "type": "function"
    },
    {
      "inputs": [
        {
          "internalType": "uint256",
          "name": "",
          "type": "uint256"
        },
        {
          "internalType": "address",
          "name": "",
          "type": "address"
        }
      ],
      "name": "refunded",
      "outputs": [
        {
          "internalType": "bool",
          "name": "",
          "type": "bool"
        }
      ],
      "stateMutability": "view",
      "type": "function"
    },
    {
      "inputs": [
        {
          "internalType": "uint256",
          "name": "",
          "type": "uint256"
        }
      ],
      "name": "stakedAmount",
      "outputs": [
        {
          "internalType": "uint256",
          "name": "",
          "type": "uint256"
        }
      ],
      "stateMutability": "view",
      "type": "function"
    },
    {
      "inputs": [
        {
          "internalType": "address",
          "name": "_newRecipient",
          "type": "address"
        }
      ],
      "name": "updateFeeRecipient",
      "outputs": [],
      "stateMutability": "nonpayable",
      "type": "function"
    },
    {
      "inputs": [
        {
          "internalType": "address",
          "name": "_newLendingPool",
          "type": "address"
        }
      ],
      "name": "updateLendingPool",
      "outputs": [],
      "stateMutability": "nonpayable",
      "type": "function"
    }
  ],
  "bytecode": "0x608060405234801561001057600080fd5b50604051613251380380613251833981810160405281019061003291906101fd565b600073ffffffffffffffffffffffffffffffffffffffff168273ffffffffffffffffffffffffffffffffffffffff1614806100995750600073ffffffffffffffffffffffffffffffffffffffff168173ffffffffffffffffffffffffffffffffffffffff16145b156100d0576040517fe6c4247b00000000000000000000000000000000000000000000000000000000815260040160405180910390fd5b33600960006101000a81548173ffffffffffffffffffffffffffffffffffffffff021916908373ffffffffffffffffffffffffffffffffffffffff16021790555081600560006101000a81548173ffffffffffffffffffffffffffffffffffffffff021916908373ffffffffffffffffffffffffffffffffffffffff16021790555080600660006101000a81548173ffffffffffffffffffffffffffffffffffffffff021916908373ffffffffffffffffffffffffffffffffffffffff160217905550505061023d565b600080fd5b600073ffffffffffffffffffffffffffffffffffffffff82169050919050565b60006101ca8261019f565b9050919050565b6101da816101bf565b81146101e557600080fd5b50565b6000815190506101f7816101d1565b92915050565b600080604083850312156102145761021361019a565b5b6000610222858286016101e8565b9250506020610233858286016101e8565b9150509250929050565b6130058061024c6000396000f3fe6080604052600436106101095760003560e01c806367f8f8c511610095578063a59a997311610064578063a59a9973146103af578063b0e1c1e1146103da578063eb13554f14610403578063ee1554a31461042e578063f160d3691461046b57610109565b806367f8f8c5146102f15780636c19e0041461031a5780637274e30d146103595780638da5cb5b1461038457610109565b8063278ecde1116100dc578063278ecde1146101d457806329516511146101fd5780634bcddb1f1461023a5780634f1ff459146102775780635a459ed4146102b457610109565b80630b9b1f9a1461010e5780630cdd53f614610137578063141961bc146101535780631e15539814610197575b600080fd5b34801561011a57600080fd5b5061013560048036038101906101309190612404565b610494565b005b610151600480360381019061014c9190612467565b610631565b005b34801561015f57600080fd5b5061017a600480360381019061017591906124a7565b610bb5565b60405161018e98979695949392919061259d565b60405180910390f35b3480156101a357600080fd5b506101be60048036038101906101b99190612622565b610cdf565b6040516101cb9190612662565b60405180910390f35b3480156101e057600080fd5b506101fb60048036038101906101f691906124a7565b610d0e565b005b34801561020957600080fd5b50610224600480360381019061021f91906124a7565b61114c565b604051610231919061273b565b60405180910390f35b34801561024657600080fd5b50610261600480360381019061025c91906124a7565b6111ef565b60405161026e919061275d565b60405180910390f35b34801561028357600080fd5b5061029e60048036038101906102999190612622565b611207565b6040516102ab9190612662565b60405180910390f35b3480156102c057600080fd5b506102db60048036038101906102d691906124a7565b611236565b6040516102e8919061275d565b60405180910390f35b3480156102fd57600080fd5b50610318600480360381019061031391906128d9565b61124e565b005b34801561032657600080fd5b50610341600480360381019061033c91906124a7565b611544565b60405161035093929190612970565b60405180910390f35b34801561036557600080fd5b5061036e6115d6565b60405161037b919061275d565b60405180910390f35b34801561039057600080fd5b506103996115dc565b6040516103a691906129a7565b60405180910390f35b3480156103bb57600080fd5b506103c4611602565b6040516103d191906129a7565b60405180910390f35b3480156103e657600080fd5b5061040160048036038101906103fc91906124a7565b611628565b005b34801561040f57600080fd5b506104186117f0565b60405161042591906129a7565b60405180910390f35b34801561043a57600080fd5b5061045560048036038101906104509190612622565b611816565b604051610462919061275d565b60405180910390f35b34801561047757600080fd5b50610492600480360381019061048d9190612404565b61183b565b005b600960009054906101000a900473ffffffffffffffffffffffffffffffffffffffff1673ffffffffffffffffffffffffffffffffffffffff163373ffffffffffffffffffffffffffffffffffffffff161461052657336040517f245aecd300000000000000000000000000000000000000000000000000000000815260040161051d91906129a7565b60405180910390fd5b600073ffffffffffffffffffffffffffffffffffffffff168173ffffffffffffffffffffffffffffffffffffffff160361058c576040517fe6c4247b00000000000000000000000000000000000000000000000000000000815260040160405180910390fd5b6000600560009054906101000a900473ffffffffffffffffffffffffffffffffffffffff16905081600560006101000a81548173ffffffffffffffffffffffffffffffffffffffff021916908373ffffffffffffffffffffffffffffffffffffffff1602179055507fb8852e851bdabda04c25661cfbfa7b09b3019206382f067a349af593e883214a81836040516106259291906129c2565b60405180910390a15050565b600080600084815260200190815260200160002090508060060160009054906101000a900460ff161561069b57826040517f78f9fd65000000000000000000000000000000000000000000000000000000008152600401610692919061275d565b60405180910390fd5b806004015442106106eb57828160040154426040517f105865c20000000000000000000000000000000000000000000000000000000081526004016106e2939291906129eb565b60405180910390fd5b60008203610725576040517f5e85ae7300000000000000000000000000000000000000000000000000000000815260040160405180910390fd5b600073ffffffffffffffffffffffffffffffffffffffff168160020160009054906101000a900473ffffffffffffffffffffffffffffffffffffffff1673ffffffffffffffffffffffffffffffffffffffff16036107c8578134146107c35781346040517f863a00e20000000000000000000000000000000000000000000000000000000081526004016107ba929190612a22565b60405180910390fd5b610918565b60003414610802576040517f4b9fed7a00000000000000000000000000000000000000000000000000000000815260040160405180910390fd5b60008160020160009054906101000a900473ffffffffffffffffffffffffffffffffffffffff1673ffffffffffffffffffffffffffffffffffffffff166323b872dd3330866040518463ffffffff1660e01b815260040161086593929190612a4b565b6020604051808303816000875af1158015610884573d6000803e3d6000fd5b505050506040513d601f19601f820116820180604052508101906108a89190612a97565b905080610916578160020160009054906101000a900473ffffffffffffffffffffffffffffffffffffffff163330856040517fabae3d6d00000000000000000000000000000000000000000000000000000000815260040161090d9493929190612ac4565b60405180910390fd5b505b8181600501600082825461092c9190612b38565b92505081905550816001600085815260200190815260200160002060003373ffffffffffffffffffffffffffffffffffffffff1673ffffffffffffffffffffffffffffffffffffffff16815260200190815260200160002060008282546109939190612b38565b925050819055506003600084815260200190815260200160002060003373ffffffffffffffffffffffffffffffffffffffff1673ffffffffffffffffffffffffffffffffffffffff16815260200190815260200160002060009054906101000a900460ff16610acb5780600701339080600181540180825580915050600190039060005260206000200160009091909190916101000a81548173ffffffffffffffffffffffffffffffffffffffff021916908373ffffffffffffffffffffffffffffffffffffffff16021790555060016003600085815260200190815260200160002060003373ffffffffffffffffffffffffffffffffffffffff1673ffffffffffffffffffffffffffffffffffffffff16815260200190815260200160002060006101000a81548160ff0219169083151502179055505b610ad583836119d8565b3373ffffffffffffffffffffffffffffffffffffffff16837fe555da28bdb778f65d22794d88927ebaeca03f7de9d1b7d39245bc8fb5ca078a84604051610b1c919061275d565b60405180910390a38060060160019054906101000a900460ff16158015610b4b57508060030154816005015410155b15610bb05760018160060160006101000a81548160ff021916908315150217905550610b7683611d0a565b827fb08312190b5508b59f34a0cda3a5b1010da8272854d7556b9fc6e126c22fe49d6001604051610ba79190612662565b60405180910390a25b505050565b60006020528060005260406000206000915090508060000160009054906101000a900473ffffffffffffffffffffffffffffffffffffffff1690806001018054610bfe90612b9b565b80601f0160208091040260200160405190810160405280929190818152602001828054610c2a90612b9b565b8015610c775780601f10610c4c57610100808354040283529160200191610c77565b820191906000526020600020905b815481529060010190602001808311610c5a57829003601f168201915b5050505050908060020160009054906101000a900473ffffffffffffffffffffffffffffffffffffffff16908060030154908060040154908060050154908060060160009054906101000a900460ff16908060060160019054906101000a900460ff16905088565b60036020528160005260406000206020528060005260406000206000915091509054906101000a900460ff1681565b600080600083815260200190815260200160002090508060060160009054906101000a900460ff16158015610d465750806004015442105b15610d7d576040517fe200d55300000000000000000000000000000000000000000000000000000000815260040160405180910390fd5b8060060160019054906101000a900460ff1680610da257508060030154816005015410155b15610de457816040517ff7e0cf00000000000000000000000000000000000000000000000000000000008152600401610ddb919061275d565b60405180910390fd5b6002600083815260200190815260200160002060003373ffffffffffffffffffffffffffffffffffffffff1673ffffffffffffffffffffffffffffffffffffffff16815260200190815260200160002060009054906101000a900460ff1615610e865781336040517f6101359d000000000000000000000000000000000000000000000000000000008152600401610e7d929190612bcc565b60405180910390fd5b60006001600084815260200190815260200160002060003373ffffffffffffffffffffffffffffffffffffffff1673ffffffffffffffffffffffffffffffffffffffff16815260200190815260200160002054905060008103610f2057336040517f36dbbdab000000000000000000000000000000000000000000000000000000008152600401610f1791906129a7565b60405180910390fd5b60016002600085815260200190815260200160002060003373ffffffffffffffffffffffffffffffffffffffff1673ffffffffffffffffffffffffffffffffffffffff16815260200190815260200160002060006101000a81548160ff021916908315150217905550600060076000858152602001908152602001600020541115610fb057610fae83612101565b505b600073ffffffffffffffffffffffffffffffffffffffff168260020160009054906101000a900473ffffffffffffffffffffffffffffffffffffffff1673ffffffffffffffffffffffffffffffffffffffff1603611054573373ffffffffffffffffffffffffffffffffffffffff166108fc829081150290604051600060405180830381858888f1935050505015801561104e573d6000803e3d6000fd5b506110f8565b8160020160009054906101000a900473ffffffffffffffffffffffffffffffffffffffff1673ffffffffffffffffffffffffffffffffffffffff1663a9059cbb33836040518363ffffffff1660e01b81526004016110b3929190612bf5565b6020604051808303816000875af11580156110d2573d6000803e3d6000fd5b505050506040513d601f19601f820116820180604052508101906110f69190612a97565b505b3373ffffffffffffffffffffffffffffffffffffffff16837f7a482fdeb6bc9a1376f597068a214a7a39472bb2eff1b8cad21ba04f49ddca1b8360405161113f919061275d565b60405180910390a3505050565b60606000808381526020019081526020016000206007018054806020026020016040519081016040528092919081815260200182805480156111e357602002820191906000526020600020905b8160009054906101000a900473ffffffffffffffffffffffffffffffffffffffff1673ffffffffffffffffffffffffffffffffffffffff1681526020019060010190808311611199575b50505050509050919050565b60086020528060005260406000206000915090505481565b60026020528160005260406000206020528060005260406000206000915091509054906101000a900460ff1681565b60076020528060005260406000206000915090505481565b8015801561125c5750600083145b15611293576040517fbf2cfade00000000000000000000000000000000000000000000000000000000815260040160405180910390fd5b600082036112cd576040517fcf478f2300000000000000000000000000000000000000000000000000000000815260040160405180910390fd5b600082426112db9190612b38565b90506040518061012001604052803373ffffffffffffffffffffffffffffffffffffffff1681526020018781526020018673ffffffffffffffffffffffffffffffffffffffff168152602001858152602001828152602001600081526020016000151581526020018315158152602001600067ffffffffffffffff81111561136657611365612782565b5b6040519080825280602002602001820160405280156113945781602001602082028036833780820191505090505b50815250600080600454815260200190815260200160002060008201518160000160006101000a81548173ffffffffffffffffffffffffffffffffffffffff021916908373ffffffffffffffffffffffffffffffffffffffff16021790555060208201518160010190816114089190612dca565b5060408201518160020160006101000a81548173ffffffffffffffffffffffffffffffffffffffff021916908373ffffffffffffffffffffffffffffffffffffffff160217905550606082015181600301556080820151816004015560a0820151816005015560c08201518160060160006101000a81548160ff02191690831515021790555060e08201518160060160016101000a81548160ff0219169083151502179055506101008201518160070190805190602001906114cb9291906122eb565b509050503373ffffffffffffffffffffffffffffffffffffffff166004547fdc26653af5b99b2da33e2ad69ee6600d9aeccc82b034501db4338309615ca23888878560405161151c93929190612e9c565b60405180910390a36004600081548092919061153790612eda565b9190505550505050505050565b60008060008060008086815260200190815260200160002090508060060160009054906101000a900460ff161580156115805750806004015442105b9350806003015481600501541015806115a757508060060160019054906101000a900460ff165b9250806004015442106115bb5760006115cc565b4281600401546115cb9190612f22565b5b9150509193909250565b60045481565b600960009054906101000a900473ffffffffffffffffffffffffffffffffffffffff1681565b600560009054906101000a900473ffffffffffffffffffffffffffffffffffffffff1681565b600080600083815260200190815260200160002090508060000160009054906101000a900473ffffffffffffffffffffffffffffffffffffffff1673ffffffffffffffffffffffffffffffffffffffff163373ffffffffffffffffffffffffffffffffffffffff16141580156116a15750806004015442105b1561170957338160000160009054906101000a900473ffffffffffffffffffffffffffffffffffffffff166040517f1ca2f3d60000000000000000000000000000000000000000000000000000000081526004016117009291906129c2565b60405180910390fd5b8060060160009054906101000a900460ff161561175d57816040517fbd95b91b000000000000000000000000000000000000000000000000000000008152600401611754919061275d565b60405180910390fd5b60018160060160006101000a81548160ff02191690831515021790555060008160030154826005015410159050827fb08312190b5508b59f34a0cda3a5b1010da8272854d7556b9fc6e126c22fe49d826040516117ba9190612662565b60405180910390a280806117dc57508160060160019054906101000a900460ff165b156117eb576117ea83611d0a565b5b505050565b600660009054906101000a900473ffffffffffffffffffffffffffffffffffffffff1681565b6001602052816000526040600020602052806000526040600020600091509150505481565b600960009054906101000a900473ffffffffffffffffffffffffffffffffffffffff1673ffffffffffffffffffffffffffffffffffffffff163373ffffffffffffffffffffffffffffffffffffffff16146118cd57336040517f245aecd30000000000000000000000000000000000000000000000000000000081526004016118c491906129a7565b60405180910390fd5b600073ffffffffffffffffffffffffffffffffffffffff168173ffffffffffffffffffffffffffffffffffffffff1603611933576040517fe6c4247b00000000000000000000000000000000000000000000000000000000815260040160405180910390fd5b6000600660009054906101000a900473ffffffffffffffffffffffffffffffffffffffff16905081600660006101000a81548173ffffffffffffffffffffffffffffffffffffffff021916908373ffffffffffffffffffffffffffffffffffffffff1602179055507faaebcf1bfa00580e41d966056b48521fa9f202645c86d4ddf28113e617c1b1d381836040516119cc9291906129c2565b60405180910390a15050565b600073ffffffffffffffffffffffffffffffffffffffff16600560009054906101000a900473ffffffffffffffffffffffffffffffffffffffff1673ffffffffffffffffffffffffffffffffffffffff1614158015611a375750600081115b15611d065760008060008481526020019081526020016000209050600073ffffffffffffffffffffffffffffffffffffffff168160020160009054906101000a900473ffffffffffffffffffffffffffffffffffffffff1673ffffffffffffffffffffffffffffffffffffffff1603611b4157600560009054906101000a900473ffffffffffffffffffffffffffffffffffffffff1673ffffffffffffffffffffffffffffffffffffffff1663f45346dc833085306040518563ffffffff1660e01b8152600401611b0a93929190612f56565b6000604051808303818588803b158015611b2357600080fd5b505af1158015611b37573d6000803e3d6000fd5b5050505050611cc2565b60008160020160009054906101000a900473ffffffffffffffffffffffffffffffffffffffff1690508073ffffffffffffffffffffffffffffffffffffffff1663095ea7b3600560009054906101000a900473ffffffffffffffffffffffffffffffffffffffff16856040518363ffffffff1660e01b8152600401611bc7929190612bf5565b6020604051808303816000875af1158015611be6573d6000803e3d6000fd5b505050506040513d601f19601f82011682018060405250810190611c0a9190612a97565b50600560009054906101000a900473ffffffffffffffffffffffffffffffffffffffff1673ffffffffffffffffffffffffffffffffffffffff1663f45346dc8360020160009054906101000a900473ffffffffffffffffffffffffffffffffffffffff1685306040518463ffffffff1660e01b8152600401611c8e93929190612f56565b600060405180830381600087803b158015611ca857600080fd5b505af1158015611cbc573d6000803e3d6000fd5b50505050505b81600760008581526020019081526020016000206000828254611ce59190612b38565b92505081905550426008600085815260200190815260200160002081905550505b5050565b6000611d1582612101565b90506000806000848152602001908152602001600020905060008160050154905060008111156120fb576000818411611d4f576000611d5c565b8184611d5b9190612f22565b5b9050600073ffffffffffffffffffffffffffffffffffffffff168360020160009054906101000a900473ffffffffffffffffffffffffffffffffffffffff1673ffffffffffffffffffffffffffffffffffffffff1603611e26578260000160009054906101000a900473ffffffffffffffffffffffffffffffffffffffff1673ffffffffffffffffffffffffffffffffffffffff166108fc839081150290604051600060405180830381858888f19350505050158015611e20573d6000803e3d6000fd5b50611eee565b8260020160009054906101000a900473ffffffffffffffffffffffffffffffffffffffff1673ffffffffffffffffffffffffffffffffffffffff1663a9059cbb8460000160009054906101000a900473ffffffffffffffffffffffffffffffffffffffff16846040518363ffffffff1660e01b8152600401611ea9929190612bf5565b6020604051808303816000875af1158015611ec8573d6000803e3d6000fd5b505050506040513d601f19601f82011682018060405250810190611eec9190612a97565b505b600081111561208457600073ffffffffffffffffffffffffffffffffffffffff168360020160009054906101000a900473ffffffffffffffffffffffffffffffffffffffff1673ffffffffffffffffffffffffffffffffffffffff1603611fbd57600660009054906101000a900473ffffffffffffffffffffffffffffffffffffffff1673ffffffffffffffffffffffffffffffffffffffff166108fc829081150290604051600060405180830381858888f19350505050158015611fb7573d6000803e3d6000fd5b50612083565b8260020160009054906101000a900473ffffffffffffffffffffffffffffffffffffffff1673ffffffffffffffffffffffffffffffffffffffff1663a9059cbb600660009054906101000a900473ffffffffffffffffffffffffffffffffffffffff16836040518363ffffffff1660e01b815260040161203e929190612bf5565b6020604051808303816000875af115801561205d573d6000803e3d6000fd5b505050506040513d601f19601f820116820180604052508101906120819190612a97565b505b5b8260000160009054906101000a900473ffffffffffffffffffffffffffffffffffffffff1673ffffffffffffffffffffffffffffffffffffffff16857f3dbb1a26f29aef1264c12ca1285deb60cca5666d8b17100c7ea1602c0a4014f684846040516120f1929190612a22565b60405180910390a3505b50505050565b60008060076000848152602001908152602001600020549050600073ffffffffffffffffffffffffffffffffffffffff16600560009054906101000a900473ffffffffffffffffffffffffffffffffffffffff1673ffffffffffffffffffffffffffffffffffffffff16141580156121795750600081115b156122e157600080600085815260200190815260200160002090506000600560009054906101000a900473ffffffffffffffffffffffffffffffffffffffff1673ffffffffffffffffffffffffffffffffffffffff166369328dec600073ffffffffffffffffffffffffffffffffffffffff168460020160009054906101000a900473ffffffffffffffffffffffffffffffffffffffff1673ffffffffffffffffffffffffffffffffffffffff1614612256578360020160009054906101000a900473ffffffffffffffffffffffffffffffffffffffff16612258565b305b85306040518463ffffffff1660e01b815260040161227893929190612f56565b6020604051808303816000875af1158015612297573d6000803e3d6000fd5b505050506040513d601f19601f820116820180604052508101906122bb9190612fa2565b9050600060076000878152602001908152602001600020819055508093505050506122e6565b809150505b919050565b828054828255906000526020600020908101928215612364579160200282015b828111156123635782518260006101000a81548173ffffffffffffffffffffffffffffffffffffffff021916908373ffffffffffffffffffffffffffffffffffffffff1602179055509160200191906001019061230b565b5b5090506123719190612375565b5090565b5b8082111561238e576000816000905550600101612376565b5090565b6000604051905090565b600080fd5b600080fd5b600073ffffffffffffffffffffffffffffffffffffffff82169050919050565b60006123d1826123a6565b9050919050565b6123e1816123c6565b81146123ec57600080fd5b50565b6000813590506123fe816123d8565b92915050565b60006020828403121561241a5761241961239c565b5b6000612428848285016123ef565b91505092915050565b6000819050919050565b61244481612431565b811461244f57600080fd5b50565b6000813590506124618161243b565b92915050565b6000806040838503121561247e5761247d61239c565b5b600061248c85828601612452565b925050602061249d85828601612452565b9150509250929050565b6000602082840312156124bd576124bc61239c565b5b60006124cb84828501612452565b91505092915050565b6124dd816123c6565b82525050565b600081519050919050565b600082825260208201905092915050565b60005b8381101561251d578082015181840152602081019050612502565b60008484015250505050565b6000601f19601f8301169050919050565b6000612545826124e3565b61254f81856124ee565b935061255f8185602086016124ff565b61256881612529565b840191505092915050565b61257c81612431565b82525050565b60008115159050919050565b61259781612582565b82525050565b6000610100820190506125b3600083018b6124d4565b81810360208301526125c5818a61253a565b90506125d460408301896124d4565b6125e16060830188612573565b6125ee6080830187612573565b6125fb60a0830186612573565b61260860c083018561258e565b61261560e083018461258e565b9998505050505050505050565b600080604083850312156126395761263861239c565b5b600061264785828601612452565b9250506020612658858286016123ef565b9150509250929050565b6000602082019050612677600083018461258e565b92915050565b600081519050919050565b600082825260208201905092915050565b6000819050602082019050919050565b6126b2816123c6565b82525050565b60006126c483836126a9565b60208301905092915050565b6000602082019050919050565b60006126e88261267d565b6126f28185612688565b93506126fd83612699565b8060005b8381101561272e57815161271588826126b8565b9750612720836126d0565b925050600181019050612701565b5085935050505092915050565b6000602082019050818103600083015261275581846126dd565b905092915050565b60006020820190506127726000830184612573565b92915050565b600080fd5b600080fd5b7f4e487b7100000000000000000000000000000000000000000000000000000000600052604160045260246000fd5b6127ba82612529565b810181811067ffffffffffffffff821117156127d9576127d8612782565b5b80604052505050565b60006127ec612392565b90506127f882826127b1565b919050565b600067ffffffffffffffff82111561281857612817612782565b5b61282182612529565b9050602081019050919050565b82818337600083830152505050565b600061285061284b846127fd565b6127e2565b90508281526020810184848401111561286c5761286b61277d565b5b61287784828561282e565b509392505050565b600082601f83011261289457612893612778565b5b81356128a484826020860161283d565b91505092915050565b6128b681612582565b81146128c157600080fd5b50565b6000813590506128d3816128ad565b92915050565b600080600080600060a086880312156128f5576128f461239c565b5b600086013567ffffffffffffffff811115612913576129126123a1565b5b61291f8882890161287f565b9550506020612930888289016123ef565b945050604061294188828901612452565b935050606061295288828901612452565b9250506080612963888289016128c4565b9150509295509295909350565b6000606082019050612985600083018661258e565b612992602083018561258e565b61299f6040830184612573565b949350505050565b60006020820190506129bc60008301846124d4565b92915050565b60006040820190506129d760008301856124d4565b6129e460208301846124d4565b9392505050565b6000606082019050612a006000830186612573565b612a0d6020830185612573565b612a1a6040830184612573565b949350505050565b6000604082019050612a376000830185612573565b612a446020830184612573565b9392505050565b6000606082019050612a6060008301866124d4565b612a6d60208301856124d4565b612a7a6040830184612573565b949350505050565b600081519050612a91816128ad565b92915050565b600060208284031215612aad57612aac61239c565b5b6000612abb84828501612a82565b91505092915050565b6000608082019050612ad960008301876124d4565b612ae660208301866124d4565b612af360408301856124d4565b612b006060830184612573565b95945050505050565b7f4e487b7100000000000000000000000000000000000000000000000000000000600052601160045260246000fd5b6000612b4382612431565b9150612b4e83612431565b9250828201905080821115612b6657612b65612b09565b5b92915050565b7f4e487b7100000000000000000000000000000000000000000000000000000000600052602260045260246000fd5b60006002820490506001821680612bb357607f821691505b602082108103612bc657612bc5612b6c565b5b50919050565b6000604082019050612be16000830185612573565b612bee60208301846124d4565b9392505050565b6000604082019050612c0a60008301856124d4565b612c176020830184612573565b9392505050565b60008190508160005260206000209050919050565b60006020601f8301049050919050565b600082821b905092915050565b600060088302612c807fffffffffffffffffffffffffffffffffffffffffffffffffffffffffffffffff82612c43565b612c8a8683612c43565b95508019841693508086168417925050509392505050565b6000819050919050565b6000612cc7612cc2612cbd84612431565b612ca2565b612431565b9050919050565b6000819050919050565b612ce183612cac565b612cf5612ced82612cce565b848454612c50565b825550505050565b600090565b612d0a612cfd565b612d15818484612cd8565b505050565b5b81811015612d3957612d2e600082612d02565b600181019050612d1b565b5050565b601f821115612d7e57612d4f81612c1e565b612d5884612c33565b81016020851015612d67578190505b612d7b612d7385612c33565b830182612d1a565b50505b505050565b600082821c905092915050565b6000612da160001984600802612d83565b1980831691505092915050565b6000612dba8383612d90565b9150826002028217905092915050565b612dd3826124e3565b67ffffffffffffffff811115612dec57612deb612782565b5b612df68254612b9b565b612e01828285612d3d565b600060209050601f831160018114612e345760008415612e22578287015190505b612e2c8582612dae565b865550612e94565b601f198416612e4286612c1e565b60005b82811015612e6a57848901518255600182019150602085019450602081019050612e45565b86831015612e875784890151612e83601f891682612d90565b8355505b6001600288020188555050505b505050505050565b60006060820190508181036000830152612eb6818661253a565b9050612ec56020830185612573565b612ed26040830184612573565b949350505050565b6000612ee582612431565b91507fffffffffffffffffffffffffffffffffffffffffffffffffffffffffffffffff8203612f1757612f16612b09565b5b600182019050919050565b6000612f2d82612431565b9150612f3883612431565b9250828203905081811115612f5057612f4f612b09565b5b92915050565b6000606082019050612f6b60008301866124d4565b612f786020830185612573565b612f8560408301846124d4565b949350505050565b600081519050612f9c8161243b565b92915050565b600060208284031215612fb857612fb761239c565b5b6000612fc684828501612f8d565b9150509291505056fea26469706673582212200ab0e8f530e207876ffb875ae13515f363560fd4b449da4cc3aed481482843ec64736f6c634300081c0033",
  "linkReferences": {},
  "deployedLinkReferences": {}
}