{
  "_format": "hh-sol-artifact-1",
  "contractName": "CharityDonation",
  "sourceName": "contracts/CharityDonation.sol",
  "abi": [
    {
      "anonymous": false,
      "inputs": [
        {
          "indexed": false,
          "internalType": "uint256",
          "name": "campaignId",
          "type": "uint256"
        },
        {
          "indexed": false,
          "internalType": "bool",
          "name": "reachedGoal",
          "type": "bool"
        }
      ],
      "name": "CampaignClosed",
      "type": "event"
    },
    {
      "anonymous": false,
      "inputs": [
        {
          "indexed": false,
          "internalType": "uint256",
          "name": "campaignId",
          "type": "uint256"
        },
        {
          "indexed": false,
          "internalType": "address",
          "name": "donor",
          "type": "address"
        },
        {
          "indexed": false,
          "internalType": "uint256",
          "name": "amount",
          "type": "uint256"
        }
      ],
      "name": "DonationMade",
      "type": "event"
    },
    {
      "anonymous": false,
      "inputs": [
        {
          "indexed": false,
          "internalType": "uint256",
          "name": "campaignId",
          "type": "uint256"
        },
        {
          "indexed": false,
          "internalType": "address",
          "name": "creator",
          "type": "address"
        },
        {
          "indexed": false,
          "internalType": "uint256",
          "name": "amount",
          "type": "uint256"
        }
      ],
      "name": "FundsWithdrawn",
      "type": "event"
    },
    {
      "anonymous": false,
      "inputs": [
        {
          "indexed": false,
          "internalType": "uint256",
          "name": "campaignId",
          "type": "uint256"
        },
        {
          "indexed": false,
          "internalType": "address",
          "name": "donor",
          "type": "address"
        },
        {
          "indexed": false,
          "internalType": "uint256",
          "name": "amount",
          "type": "uint256"
        }
      ],
      "name": "RefundIssued",
      "type": "event"
    },
    {
      "inputs": [],
      "name": "campaignCount",
      "outputs": [
        {
          "internalType": "uint256",
          "name": "",
          "type": "uint256"
        }
      ],
      "stateMutability": "view",
      "type": "function"
    },
    {
      "inputs": [
        {
          "internalType": "uint256",
          "name": "",
          "type": "uint256"
        }
      ],
      "name": "campaigns",
      "outputs": [
        {
          "internalType": "address",
          "name": "creator",
          "type": "address"
        },
        {
          "internalType": "string",
          "name": "title",
          "type": "string"
        },
        {
          "internalType": "address",
          "name": "tokenAddress",
          "type": "address"
        },
        {
          "internalType": "uint256",
          "name": "goal",
          "type": "uint256"
        },
        {
          "internalType": "uint256",
          "name": "deadline",
          "type": "uint256"
        },
        {
          "internalType": "uint256",
          "name": "totalDonated",
          "type": "uint256"
        },
        {
          "internalType": "bool",
          "name": "isClosed",
          "type": "bool"
        },
        {
          "internalType": "bool",
          "name": "isNoLimit",
          "type": "bool"
        }
      ],
      "stateMutability": "view",
      "type": "function"
    },
    {
      "inputs": [
        {
          "internalType": "uint256",
          "name": "_campaignId",
          "type": "uint256"
        }
      ],
      "name": "closeCampaign",
      "outputs": [],
      "stateMutability": "nonpayable",
      "type": "function"
    },
    {
      "inputs": [
        {
          "internalType": "string",
          "name": "_title",
          "type": "string"
        },
        {
          "internalType": "address",
          "name": "_tokenAddress",
          "type": "address"
        },
        {
          "internalType": "uint256",
          "name": "_goal",
          "type": "uint256"
        },
        {
          "internalType": "uint256",
          "name": "_duration",
          "type": "uint256"
        },
        {
          "internalType": "bool",
          "name": "_isNoLimit",
          "type": "bool"
        }
      ],
      "name": "createCampaign",
      "outputs": [],
      "stateMutability": "nonpayable",
      "type": "function"
    },
    {
      "inputs": [
        {
          "internalType": "uint256",
          "name": "_campaignId",
          "type": "uint256"
        },
        {
          "internalType": "uint256",
          "name": "_amount",
          "type": "uint256"
        }
      ],
      "name": "donate",
      "outputs": [],
      "stateMutability": "payable",
      "type": "function"
    },
    {
      "inputs": [
        {
          "internalType": "uint256",
          "name": "",
          "type": "uint256"
        },
        {
          "internalType": "address",
          "name": "",
          "type": "address"
        }
      ],
      "name": "donations",
      "outputs": [
        {
          "internalType": "uint256",
          "name": "",
          "type": "uint256"
        }
      ],
      "stateMutability": "view",
      "type": "function"
    },
    {
      "inputs": [
        {
          "internalType": "uint256",
          "name": "_campaignId",
          "type": "uint256"
        }
      ],
      "name": "getCampaignStatus",
      "outputs": [
        {
          "internalType": "bool",
          "name": "isActive",
          "type": "bool"
        },
        {
          "internalType": "bool",
          "name": "isSuccessful",
          "type": "bool"
        },
        {
          "internalType": "uint256",
          "name": "remainingTime",
          "type": "uint256"
        }
      ],
      "stateMutability": "view",
      "type": "function"
    },
    {
      "inputs": [
        {
          "internalType": "uint256",
          "name": "_campaignId",
          "type": "uint256"
        }
      ],
      "name": "getDonors",
      "outputs": [
        {
          "internalType": "address[]",
          "name": "",
          "type": "address[]"
        }
      ],
      "stateMutability": "view",
      "type": "function"
    },
    {
      "inputs": [
        {
          "internalType": "uint256",
          "name": "",
          "type": "uint256"
        },
        {
          "internalType": "address",
          "name": "",
          "type": "address"
        }
      ],
      "name": "hasDonated",
      "outputs": [
        {
          "internalType": "bool",
          "name": "",
          "type": "bool"
        }
      ],
      "stateMutability": "view",
      "type": "function"
    },
    {
      "inputs": [
        {
          "internalType": "uint256",
          "name": "_campaignId",
          "type": "uint256"
        }
      ],
      "name": "refund",
      "outputs": [],
      "stateMutability": "nonpayable",
      "type": "function"
    },
    {
      "inputs": [
        {
          "internalType": "uint256",
          "name": "",
          "type": "uint256"
        },
        {
          "internalType": "address",
          "name": "",
          "type": "address"
        }
      ],
      "name": "refunded",
      "outputs": [
        {
          "internalType": "bool",
          "name": "",
          "type": "bool"
        }
      ],
      "stateMutability": "view",
      "type": "function"
    }
  ],
  "bytecode": "0x6080604052348015600f57600080fd5b506126c58061001f6000396000f3fe60806040526004361061009c5760003560e01c80634f1ff459116100645780634f1ff459146101a457806367f8f8c5146101e15780636c19e0041461020a5780637274e30d14610249578063b0e1c1e114610274578063ee1554a31461029d5761009c565b80630cdd53f6146100a1578063141961bc146100bd5780631e15539814610101578063278ecde11461013e5780632951651114610167575b600080fd5b6100bb60048036038101906100b691906115fe565b6102da565b005b3480156100c957600080fd5b506100e460048036038101906100df919061163e565b6107ba565b6040516100f8989796959493929190611766565b60405180910390f35b34801561010d57600080fd5b5061012860048036038101906101239190611817565b6108e4565b6040516101359190611857565b60405180910390f35b34801561014a57600080fd5b506101656004803603810190610160919061163e565b610913565b005b34801561017357600080fd5b5061018e6004803603810190610189919061163e565b610d15565b60405161019b9190611930565b60405180910390f35b3480156101b057600080fd5b506101cb60048036038101906101c69190611817565b610db8565b6040516101d89190611857565b60405180910390f35b3480156101ed57600080fd5b5061020860048036038101906102039190611ab3565b610de7565b005b34801561021657600080fd5b50610231600480360381019061022c919061163e565b611089565b60405161024093929190611b4a565b60405180910390f35b34801561025557600080fd5b5061025e61111e565b60405161026b9190611b81565b60405180910390f35b34801561028057600080fd5b5061029b6004803603810190610296919061163e565b611124565b005b3480156102a957600080fd5b506102c460048036038101906102bf9190611817565b6112c1565b6040516102d19190611b81565b60405180910390f35b600080600084815260200190815260200160002090508060060160009054906101000a900460ff1615610342576040517f08c379a000000000000000000000000000000000000000000000000000000000815260040161033990611be8565b60405180910390fd5b80600401544210610388576040517f08c379a000000000000000000000000000000000000000000000000000000000815260040161037f90611c54565b60405180910390fd5b600082116103cb576040517f08c379a00000000000000000000000000000000000000000000000000000000081526004016103c290611cc0565b60405180910390fd5b600073ffffffffffffffffffffffffffffffffffffffff168160020160009054906101000a900473ffffffffffffffffffffffffffffffffffffffff1673ffffffffffffffffffffffffffffffffffffffff160361046a57813414610465576040517f08c379a000000000000000000000000000000000000000000000000000000000815260040161045c90611d2c565b60405180910390fd5b610591565b600034146104ad576040517f08c379a00000000000000000000000000000000000000000000000000000000081526004016104a490611d98565b60405180910390fd5b8060020160009054906101000a900473ffffffffffffffffffffffffffffffffffffffff1673ffffffffffffffffffffffffffffffffffffffff166323b872dd3330856040518463ffffffff1660e01b815260040161050e93929190611db8565b6020604051808303816000875af115801561052d573d6000803e3d6000fd5b505050506040513d601f19601f820116820180604052508101906105519190611e04565b610590576040517f08c379a000000000000000000000000000000000000000000000000000000000815260040161058790611e7d565b60405180910390fd5b5b818160050160008282546105a59190611ecc565b92505081905550816001600085815260200190815260200160002060003373ffffffffffffffffffffffffffffffffffffffff1673ffffffffffffffffffffffffffffffffffffffff168152602001908152602001600020600082825461060c9190611ecc565b925050819055506003600084815260200190815260200160002060003373ffffffffffffffffffffffffffffffffffffffff1673ffffffffffffffffffffffffffffffffffffffff16815260200190815260200160002060009054906101000a900460ff166107445780600701339080600181540180825580915050600190039060005260206000200160009091909190916101000a81548173ffffffffffffffffffffffffffffffffffffffff021916908373ffffffffffffffffffffffffffffffffffffffff16021790555060016003600085815260200190815260200160002060003373ffffffffffffffffffffffffffffffffffffffff1673ffffffffffffffffffffffffffffffffffffffff16815260200190815260200160002060006101000a81548160ff0219169083151502179055505b7fe555da28bdb778f65d22794d88927ebaeca03f7de9d1b7d39245bc8fb5ca078a83338460405161077793929190611f00565b60405180910390a18060060160019054906101000a900460ff161580156107a657508060030154816005015410155b156107b5576107b4836112e6565b5b505050565b60006020528060005260406000206000915090508060000160009054906101000a900473ffffffffffffffffffffffffffffffffffffffff169080600101805461080390611f66565b80601f016020809104026020016040519081016040528092919081815260200182805461082f90611f66565b801561087c5780601f106108515761010080835404028352916020019161087c565b820191906000526020600020905b81548152906001019060200180831161085f57829003601f168201915b5050505050908060020160009054906101000a900473ffffffffffffffffffffffffffffffffffffffff16908060030154908060040154908060050154908060060160009054906101000a900460ff16908060060160019054906101000a900460ff16905088565b60036020528160005260406000206020528060005260406000206000915091509054906101000a900460ff1681565b600080600083815260200190815260200160002090508060060160009054906101000a900460ff168061094a575080600401544210155b610989576040517f08c379a000000000000000000000000000000000000000000000000000000000815260040161098090611fe3565b60405180910390fd5b8060060160019054906101000a900460ff161580156109af575080600301548160050154105b6109ee576040517f08c379a00000000000000000000000000000000000000000000000000000000081526004016109e590612075565b60405180910390fd5b6002600083815260200190815260200160002060003373ffffffffffffffffffffffffffffffffffffffff1673ffffffffffffffffffffffffffffffffffffffff16815260200190815260200160002060009054906101000a900460ff1615610a8c576040517f08c379a0000000000000000000000000000000000000000000000000000000008152600401610a83906120e1565b60405180910390fd5b60006001600084815260200190815260200160002060003373ffffffffffffffffffffffffffffffffffffffff1673ffffffffffffffffffffffffffffffffffffffff16815260200190815260200160002054905060008111610b24576040517f08c379a0000000000000000000000000000000000000000000000000000000008152600401610b1b9061214d565b60405180910390fd5b60016002600085815260200190815260200160002060003373ffffffffffffffffffffffffffffffffffffffff1673ffffffffffffffffffffffffffffffffffffffff16815260200190815260200160002060006101000a81548160ff021916908315150217905550600073ffffffffffffffffffffffffffffffffffffffff168260020160009054906101000a900473ffffffffffffffffffffffffffffffffffffffff1673ffffffffffffffffffffffffffffffffffffffff1603610c31573373ffffffffffffffffffffffffffffffffffffffff166108fc829081150290604051600060405180830381858888f19350505050158015610c2b573d6000803e3d6000fd5b50610cd5565b8160020160009054906101000a900473ffffffffffffffffffffffffffffffffffffffff1673ffffffffffffffffffffffffffffffffffffffff1663a9059cbb33836040518363ffffffff1660e01b8152600401610c9092919061216d565b6020604051808303816000875af1158015610caf573d6000803e3d6000fd5b505050506040513d601f19601f82011682018060405250810190610cd39190611e04565b505b7f7a482fdeb6bc9a1376f597068a214a7a39472bb2eff1b8cad21ba04f49ddca1b833383604051610d0893929190611f00565b60405180910390a1505050565b6060600080838152602001908152602001600020600701805480602002602001604051908101604052809291908181526020018280548015610dac57602002820191906000526020600020905b8160009054906101000a900473ffffffffffffffffffffffffffffffffffffffff1673ffffffffffffffffffffffffffffffffffffffff1681526020019060010190808311610d62575b50505050509050919050565b60026020528160005260406000206020528060005260406000206000915091509054906101000a900460ff1681565b60008311610e2a576040517f08c379a0000000000000000000000000000000000000000000000000000000008152600401610e21906121e2565b60405180910390fd5b60008211610e6d576040517f08c379a0000000000000000000000000000000000000000000000000000000008152600401610e649061224e565b60405180910390fd5b6040518061012001604052803373ffffffffffffffffffffffffffffffffffffffff1681526020018681526020018573ffffffffffffffffffffffffffffffffffffffff1681526020018481526020018342610ec99190611ecc565b8152602001600081526020016000151581526020018215158152602001600067ffffffffffffffff811115610f0157610f0061195c565b5b604051908082528060200260200182016040528015610f2f5781602001602082028036833780820191505090505b50815250600080600454815260200190815260200160002060008201518160000160006101000a81548173ffffffffffffffffffffffffffffffffffffffff021916908373ffffffffffffffffffffffffffffffffffffffff1602179055506020820151816001019081610fa3919061241a565b5060408201518160020160006101000a81548173ffffffffffffffffffffffffffffffffffffffff021916908373ffffffffffffffffffffffffffffffffffffffff160217905550606082015181600301556080820151816004015560a0820151816005015560c08201518160060160006101000a81548160ff02191690831515021790555060e08201518160060160016101000a81548160ff02191690831515021790555061010082015181600701908051906020019061106692919061150d565b509050506004600081548092919061107d906124ec565b91905055505050505050565b60008060008060008086815260200190815260200160002090508060060160009054906101000a900460ff161580156110c55750806004015442105b9350806003015481600501541015806110ec57508060060160019054906101000a900460ff165b925080600401544210156111115742816004015461110a9190612534565b9150611116565b600091505b509193909250565b60045481565b600080600083815260200190815260200160002090508060000160009054906101000a900473ffffffffffffffffffffffffffffffffffffffff1673ffffffffffffffffffffffffffffffffffffffff163373ffffffffffffffffffffffffffffffffffffffff16148061119c575080600401544210155b6111db576040517f08c379a00000000000000000000000000000000000000000000000000000000081526004016111d2906125da565b60405180910390fd5b8060060160009054906101000a900460ff161561122d576040517f08c379a000000000000000000000000000000000000000000000000000000000815260040161122490612646565b60405180910390fd5b60018160060160006101000a81548160ff021916908315150217905550600081600301548260050154101590507fb08312190b5508b59f34a0cda3a5b1010da8272854d7556b9fc6e126c22fe49d838260405161128b929190612666565b60405180910390a180806112ad57508160060160019054906101000a900460ff165b156112bc576112bb836112e6565b5b505050565b6001602052816000526040600020602052806000526040600020600091509150505481565b6000806000838152602001908152602001600020905060008160050154905060008111156115085760008260050181905550600073ffffffffffffffffffffffffffffffffffffffff168260020160009054906101000a900473ffffffffffffffffffffffffffffffffffffffff1673ffffffffffffffffffffffffffffffffffffffff16036113e0578160000160009054906101000a900473ffffffffffffffffffffffffffffffffffffffff1673ffffffffffffffffffffffffffffffffffffffff166108fc829081150290604051600060405180830381858888f193505050501580156113da573d6000803e3d6000fd5b506114a8565b8160020160009054906101000a900473ffffffffffffffffffffffffffffffffffffffff1673ffffffffffffffffffffffffffffffffffffffff1663a9059cbb8360000160009054906101000a900473ffffffffffffffffffffffffffffffffffffffff16836040518363ffffffff1660e01b815260040161146392919061216d565b6020604051808303816000875af1158015611482573d6000803e3d6000fd5b505050506040513d601f19601f820116820180604052508101906114a69190611e04565b505b7ff440aec6b52895984d061d622e6edeba6210f7c3e059be920663140c084560d7838360000160009054906101000a900473ffffffffffffffffffffffffffffffffffffffff16836040516114ff93929190611f00565b60405180910390a15b505050565b828054828255906000526020600020908101928215611586579160200282015b828111156115855782518260006101000a81548173ffffffffffffffffffffffffffffffffffffffff021916908373ffffffffffffffffffffffffffffffffffffffff1602179055509160200191906001019061152d565b5b5090506115939190611597565b5090565b5b808211156115b0576000816000905550600101611598565b5090565b6000604051905090565b600080fd5b600080fd5b6000819050919050565b6115db816115c8565b81146115e657600080fd5b50565b6000813590506115f8816115d2565b92915050565b60008060408385031215611615576116146115be565b5b6000611623858286016115e9565b9250506020611634858286016115e9565b9150509250929050565b600060208284031215611654576116536115be565b5b6000611662848285016115e9565b91505092915050565b600073ffffffffffffffffffffffffffffffffffffffff82169050919050565b60006116968261166b565b9050919050565b6116a68161168b565b82525050565b600081519050919050565b600082825260208201905092915050565b60005b838110156116e65780820151818401526020810190506116cb565b60008484015250505050565b6000601f19601f8301169050919050565b600061170e826116ac565b61171881856116b7565b93506117288185602086016116c8565b611731816116f2565b840191505092915050565b611745816115c8565b82525050565b60008115159050919050565b6117608161174b565b82525050565b60006101008201905061177c600083018b61169d565b818103602083015261178e818a611703565b905061179d604083018961169d565b6117aa606083018861173c565b6117b7608083018761173c565b6117c460a083018661173c565b6117d160c0830185611757565b6117de60e0830184611757565b9998505050505050505050565b6117f48161168b565b81146117ff57600080fd5b50565b600081359050611811816117eb565b92915050565b6000806040838503121561182e5761182d6115be565b5b600061183c858286016115e9565b925050602061184d85828601611802565b9150509250929050565b600060208201905061186c6000830184611757565b92915050565b600081519050919050565b600082825260208201905092915050565b6000819050602082019050919050565b6118a78161168b565b82525050565b60006118b9838361189e565b60208301905092915050565b6000602082019050919050565b60006118dd82611872565b6118e7818561187d565b93506118f28361188e565b8060005b8381101561192357815161190a88826118ad565b9750611915836118c5565b9250506001810190506118f6565b5085935050505092915050565b6000602082019050818103600083015261194a81846118d2565b905092915050565b600080fd5b600080fd5b7f4e487b7100000000000000000000000000000000000000000000000000000000600052604160045260246000fd5b611994826116f2565b810181811067ffffffffffffffff821117156119b3576119b261195c565b5b80604052505050565b60006119c66115b4565b90506119d2828261198b565b919050565b600067ffffffffffffffff8211156119f2576119f161195c565b5b6119fb826116f2565b9050602081019050919050565b82818337600083830152505050565b6000611a2a611a25846119d7565b6119bc565b905082815260208101848484011115611a4657611a45611957565b5b611a51848285611a08565b509392505050565b600082601f830112611a6e57611a6d611952565b5b8135611a7e848260208601611a17565b91505092915050565b611a908161174b565b8114611a9b57600080fd5b50565b600081359050611aad81611a87565b92915050565b600080600080600060a08688031215611acf57611ace6115be565b5b600086013567ffffffffffffffff811115611aed57611aec6115c3565b5b611af988828901611a59565b9550506020611b0a88828901611802565b9450506040611b1b888289016115e9565b9350506060611b2c888289016115e9565b9250506080611b3d88828901611a9e565b9150509295509295909350565b6000606082019050611b5f6000830186611757565b611b6c6020830185611757565b611b79604083018461173c565b949350505050565b6000602082019050611b96600083018461173c565b92915050565b7f43616d706169676e20697320636c6f7365640000000000000000000000000000600082015250565b6000611bd26012836116b7565b9150611bdd82611b9c565b602082019050919050565b60006020820190508181036000830152611c0181611bc5565b9050919050565b7f43616d706169676e2068617320656e6465640000000000000000000000000000600082015250565b6000611c3e6012836116b7565b9150611c4982611c08565b602082019050919050565b60006020820190508181036000830152611c6d81611c31565b9050919050565b7f416d6f756e74206d7573742062652067726561746572207468616e2030000000600082015250565b6000611caa601d836116b7565b9150611cb582611c74565b602082019050919050565b60006020820190508181036000830152611cd981611c9d565b9050919050565b7f4d69736d617463682045544820616d6f756e7400000000000000000000000000600082015250565b6000611d166013836116b7565b9150611d2182611ce0565b602082019050919050565b60006020820190508181036000830152611d4581611d09565b9050919050565b7f446f206e6f742073656e64204554480000000000000000000000000000000000600082015250565b6000611d82600f836116b7565b9150611d8d82611d4c565b602082019050919050565b60006020820190508181036000830152611db181611d75565b9050919050565b6000606082019050611dcd600083018661169d565b611dda602083018561169d565b611de7604083018461173c565b949350505050565b600081519050611dfe81611a87565b92915050565b600060208284031215611e1a57611e196115be565b5b6000611e2884828501611def565b91505092915050565b7f546f6b656e207472616e73666572206661696c65640000000000000000000000600082015250565b6000611e676015836116b7565b9150611e7282611e31565b602082019050919050565b60006020820190508181036000830152611e9681611e5a565b9050919050565b7f4e487b7100000000000000000000000000000000000000000000000000000000600052601160045260246000fd5b6000611ed7826115c8565b9150611ee2836115c8565b9250828201905080821115611efa57611ef9611e9d565b5b92915050565b6000606082019050611f15600083018661173c565b611f22602083018561169d565b611f2f604083018461173c565b949350505050565b7f4e487b7100000000000000000000000000000000000000000000000000000000600052602260045260246000fd5b60006002820490506001821680611f7e57607f821691505b602082108103611f9157611f90611f37565b5b50919050565b7f43616d706169676e206d75737420626520636c6f736564206f7220656e646564600082015250565b6000611fcd6020836116b7565b9150611fd882611f97565b602082019050919050565b60006020820190508181036000830152611ffc81611fc0565b9050919050565b7f4e6f20726566756e6420617661696c61626c6520666f7220737563636573736660008201527f756c206f7220756e6c696d697465642063616d706169676e7300000000000000602082015250565b600061205f6039836116b7565b915061206a82612003565b604082019050919050565b6000602082019050818103600083015261208e81612052565b9050919050565b7f416c726561647920726566756e64656400000000000000000000000000000000600082015250565b60006120cb6010836116b7565b91506120d682612095565b602082019050919050565b600060208201905081810360008301526120fa816120be565b9050919050565b7f4e6f20646f6e6174696f6e20746f20726566756e640000000000000000000000600082015250565b60006121376015836116b7565b915061214282612101565b602082019050919050565b600060208201905081810360008301526121668161212a565b9050919050565b6000604082019050612182600083018561169d565b61218f602083018461173c565b9392505050565b7f476f616c206d7573742062652067726561746572207468616e20300000000000600082015250565b60006121cc601b836116b7565b91506121d782612196565b602082019050919050565b600060208201905081810360008301526121fb816121bf565b9050919050565b7f4475726174696f6e206d7573742062652067726561746572207468616e203000600082015250565b6000612238601f836116b7565b915061224382612202565b602082019050919050565b600060208201905081810360008301526122678161222b565b9050919050565b60008190508160005260206000209050919050565b60006020601f8301049050919050565b600082821b905092915050565b6000600883026122d07fffffffffffffffffffffffffffffffffffffffffffffffffffffffffffffffff82612293565b6122da8683612293565b95508019841693508086168417925050509392505050565b6000819050919050565b600061231761231261230d846115c8565b6122f2565b6115c8565b9050919050565b6000819050919050565b612331836122fc565b61234561233d8261231e565b8484546122a0565b825550505050565b600090565b61235a61234d565b612365818484612328565b505050565b5b818110156123895761237e600082612352565b60018101905061236b565b5050565b601f8211156123ce5761239f8161226e565b6123a884612283565b810160208510156123b7578190505b6123cb6123c385612283565b83018261236a565b50505b505050565b600082821c905092915050565b60006123f1600019846008026123d3565b1980831691505092915050565b600061240a83836123e0565b9150826002028217905092915050565b612423826116ac565b67ffffffffffffffff81111561243c5761243b61195c565b5b6124468254611f66565b61245182828561238d565b600060209050601f8311600181146124845760008415612472578287015190505b61247c85826123fe565b8655506124e4565b601f1984166124928661226e565b60005b828110156124ba57848901518255600182019150602085019450602081019050612495565b868310156124d757848901516124d3601f8916826123e0565b8355505b6001600288020188555050505b505050505050565b60006124f7826115c8565b91507fffffffffffffffffffffffffffffffffffffffffffffffffffffffffffffffff820361252957612528611e9d565b5b600182019050919050565b600061253f826115c8565b915061254a836115c8565b925082820390508181111561256257612561611e9d565b5b92915050565b7f4f6e6c792063726561746f722063616e20636c6f7365206265666f726520646560008201527f61646c696e650000000000000000000000000000000000000000000000000000602082015250565b60006125c46026836116b7565b91506125cf82612568565b604082019050919050565b600060208201905081810360008301526125f3816125b7565b9050919050565b7f43616d706169676e20616c726561647920636c6f736564000000000000000000600082015250565b60006126306017836116b7565b915061263b826125fa565b602082019050919050565b6000602082019050818103600083015261265f81612623565b9050919050565b600060408201905061267b600083018561173c565b6126886020830184611757565b939250505056fea26469706673582212200363c65ce1134398b2365e3478d762a0d66f4c8383985a065160d67b779608ff64736f6c634300081c0033",
  "linkReferences": {},
  "deployedLinkReferences": {}
}