{
  "_format": "hh-sol-artifact-1",
  "contractName": "CharityHearts",
  "sourceName": "contracts/CharityHearts.sol",
  "abi": [
    {
      "inputs": [
        {
          "internalType": "string",
          "name": "name",
          "type": "string"
        },
        {
          "internalType": "string",
          "name": "symbol",
          "type": "string"
        },
        {
          "internalType": "string",
          "name": "baseTokenURI",
          "type": "string"
        }
      ],
      "stateMutability": "nonpayable",
      "type": "constructor"
    },
    {
      "inputs": [
        {
          "internalType": "address",
          "name": "sender",
          "type": "address"
        },
        {
          "internalType": "uint256",
          "name": "tokenId",
          "type": "uint256"
        },
        {
          "internalType": "address",
          "name": "owner",
          "type": "address"
        }
      ],
      "name": "ERC721IncorrectOwner",
      "type": "error"
    },
    {
      "inputs": [
        {
          "internalType": "address",
          "name": "operator",
          "type": "address"
        },
        {
          "internalType": "uint256",
          "name": "tokenId",
          "type": "uint256"
        }
      ],
      "name": "ERC721InsufficientApproval",
      "type": "error"
    },
    {
      "inputs": [
        {
          "internalType": "address",
          "name": "approver",
          "type": "address"
        }
      ],
      "name": "ERC721InvalidApprover",
      "type": "error"
    },
    {
      "inputs": [
        {
          "internalType": "address",
          "name": "operator",
          "type": "address"
        }
      ],
      "name": "ERC721InvalidOperator",
      "type": "error"
    },
    {
      "inputs": [
        {
          "internalType": "address",
          "name": "owner",
          "type": "address"
        }
      ],
      "name": "ERC721InvalidOwner",
      "type": "error"
    },
    {
      "inputs": [
        {
          "internalType": "address",
          "name": "receiver",
          "type": "address"
        }
      ],
      "name": "ERC721InvalidReceiver",
      "type": "error"
    },
    {
      "inputs": [
        {
          "internalType": "address",
          "name": "sender",
          "type": "address"
        }
      ],
      "name": "ERC721InvalidSender",
      "type": "error"
    },
    {
      "inputs": [
        {
          "internalType": "uint256",
          "name": "tokenId",
          "type": "uint256"
        }
      ],
      "name": "ERC721NonexistentToken",
      "type": "error"
    },
    {
      "inputs": [
        {
          "internalType": "address",
          "name": "owner",
          "type": "address"
        }
      ],
      "name": "OwnableInvalidOwner",
      "type": "error"
    },
    {
      "inputs": [
        {
          "internalType": "address",
          "name": "account",
          "type": "address"
        }
      ],
      "name": "OwnableUnauthorizedAccount",
      "type": "error"
    },
    {
      "anonymous": false,
      "inputs": [
        {
          "indexed": true,
          "internalType": "address",
          "name": "owner",
          "type": "address"
        },
        {
          "indexed": true,
          "internalType": "address",
          "name": "approved",
          "type": "address"
        },
        {
          "indexed": true,
          "internalType": "uint256",
          "name": "tokenId",
          "type": "uint256"
        }
      ],
      "name": "Approval",
      "type": "event"
    },
    {
      "anonymous": false,
      "inputs": [
        {
          "indexed": true,
          "internalType": "address",
          "name": "owner",
          "type": "address"
        },
        {
          "indexed": true,
          "internalType": "address",
          "name": "operator",
          "type": "address"
        },
        {
          "indexed": false,
          "internalType": "bool",
          "name": "approved",
          "type": "bool"
        }
      ],
      "name": "ApprovalForAll",
      "type": "event"
    },
    {
      "anonymous": false,
      "inputs": [
        {
          "indexed": false,
          "internalType": "string",
          "name": "newBaseURI",
          "type": "string"
        }
      ],
      "name": "BaseURIUpdated",
      "type": "event"
    },
    {
      "anonymous": false,
      "inputs": [
        {
          "indexed": false,
          "internalType": "uint256",
          "name": "_fromTokenId",
          "type": "uint256"
        },
        {
          "indexed": false,
          "internalType": "uint256",
          "name": "_toTokenId",
          "type": "uint256"
        }
      ],
      "name": "BatchMetadataUpdate",
      "type": "event"
    },
    {
      "anonymous": false,
      "inputs": [
        {
          "indexed": false,
          "internalType": "uint256",
          "name": "_tokenId",
          "type": "uint256"
        }
      ],
      "name": "MetadataUpdate",
      "type": "event"
    },
    {
      "anonymous": false,
      "inputs": [
        {
          "indexed": false,
          "internalType": "uint256",
          "name": "newPrice",
          "type": "uint256"
        }
      ],
      "name": "MintPriceUpdated",
      "type": "event"
    },
    {
      "anonymous": false,
      "inputs": [
        {
          "indexed": true,
          "internalType": "address",
          "name": "to",
          "type": "address"
        },
        {
          "indexed": true,
          "internalType": "uint256",
          "name": "tokenId",
          "type": "uint256"
        },
        {
          "indexed": false,
          "internalType": "string",
          "name": "tokenURI",
          "type": "string"
        }
      ],
      "name": "NFTMinted",
      "type": "event"
    },
    {
      "anonymous": false,
      "inputs": [
        {
          "indexed": true,
          "internalType": "address",
          "name": "previousOwner",
          "type": "address"
        },
        {
          "indexed": true,
          "internalType": "address",
          "name": "newOwner",
          "type": "address"
        }
      ],
      "name": "OwnershipTransferred",
      "type": "event"
    },
    {
      "anonymous": false,
      "inputs": [
        {
          "indexed": true,
          "internalType": "address",
          "name": "from",
          "type": "address"
        },
        {
          "indexed": true,
          "internalType": "address",
          "name": "to",
          "type": "address"
        },
        {
          "indexed": true,
          "internalType": "uint256",
          "name": "tokenId",
          "type": "uint256"
        }
      ],
      "name": "Transfer",
      "type": "event"
    },
    {
      "inputs": [
        {
          "internalType": "address",
          "name": "to",
          "type": "address"
        },
        {
          "internalType": "uint256",
          "name": "tokenId",
          "type": "uint256"
        }
      ],
      "name": "approve",
      "outputs": [],
      "stateMutability": "nonpayable",
      "type": "function"
    },
    {
      "inputs": [
        {
          "internalType": "address",
          "name": "owner",
          "type": "address"
        }
      ],
      "name": "balanceOf",
      "outputs": [
        {
          "internalType": "uint256",
          "name": "",
          "type": "uint256"
        }
      ],
      "stateMutability": "view",
      "type": "function"
    },
    {
      "inputs": [
        {
          "internalType": "address[]",
          "name": "recipients",
          "type": "address[]"
        },
        {
          "internalType": "string[]",
          "name": "uris",
          "type": "string[]"
        }
      ],
      "name": "batchMint",
      "outputs": [],
      "stateMutability": "nonpayable",
      "type": "function"
    },
    {
      "inputs": [
        {
          "internalType": "uint256",
          "name": "tokenId",
          "type": "uint256"
        }
      ],
      "name": "burn",
      "outputs": [],
      "stateMutability": "nonpayable",
      "type": "function"
    },
    {
      "inputs": [
        {
          "internalType": "uint256",
          "name": "tokenId",
          "type": "uint256"
        }
      ],
      "name": "exists",
      "outputs": [
        {
          "internalType": "bool",
          "name": "",
          "type": "bool"
        }
      ],
      "stateMutability": "view",
      "type": "function"
    },
    {
      "inputs": [
        {
          "internalType": "uint256",
          "name": "tokenId",
          "type": "uint256"
        }
      ],
      "name": "getApproved",
      "outputs": [
        {
          "internalType": "address",
          "name": "",
          "type": "address"
        }
      ],
      "stateMutability": "view",
      "type": "function"
    },
    {
      "inputs": [
        {
          "internalType": "address",
          "name": "owner",
          "type": "address"
        },
        {
          "internalType": "address",
          "name": "operator",
          "type": "address"
        }
      ],
      "name": "isApprovedForAll",
      "outputs": [
        {
          "internalType": "bool",
          "name": "",
          "type": "bool"
        }
      ],
      "stateMutability": "view",
      "type": "function"
    },
    {
      "inputs": [],
      "name": "maxMintPerAddress",
      "outputs": [
        {
          "internalType": "uint256",
          "name": "",
          "type": "uint256"
        }
      ],
      "stateMutability": "view",
      "type": "function"
    },
    {
      "inputs": [],
      "name": "maxSupply",
      "outputs": [
        {
          "internalType": "uint256",
          "name": "",
          "type": "uint256"
        }
      ],
      "stateMutability": "view",
      "type": "function"
    },
    {
      "inputs": [],
      "name": "mintPrice",
      "outputs": [
        {
          "internalType": "uint256",
          "name": "",
          "type": "uint256"
        }
      ],
      "stateMutability": "view",
      "type": "function"
    },
    {
      "inputs": [
        {
          "internalType": "address",
          "name": "",
          "type": "address"
        }
      ],
      "name": "mintedByAddress",
      "outputs": [
        {
          "internalType": "uint256",
          "name": "",
          "type": "uint256"
        }
      ],
      "stateMutability": "view",
      "type": "function"
    },
    {
      "inputs": [],
      "name": "name",
      "outputs": [
        {
          "internalType": "string",
          "name": "",
          "type": "string"
        }
      ],
      "stateMutability": "view",
      "type": "function"
    },
    {
      "inputs": [],
      "name": "owner",
      "outputs": [
        {
          "internalType": "address",
          "name": "",
          "type": "address"
        }
      ],
      "stateMutability": "view",
      "type": "function"
    },
    {
      "inputs": [
        {
          "internalType": "uint256",
          "name": "tokenId",
          "type": "uint256"
        }
      ],
      "name": "ownerOf",
      "outputs": [
        {
          "internalType": "address",
          "name": "",
          "type": "address"
        }
      ],
      "stateMutability": "view",
      "type": "function"
    },
    {
      "inputs": [
        {
          "internalType": "string",
          "name": "uri",
          "type": "string"
        }
      ],
      "name": "publicMint",
      "outputs": [],
      "stateMutability": "payable",
      "type": "function"
    },
    {
      "inputs": [],
      "name": "renounceOwnership",
      "outputs": [],
      "stateMutability": "nonpayable",
      "type": "function"
    },
    {
      "inputs": [
        {
          "internalType": "address",
          "name": "to",
          "type": "address"
        },
        {
          "internalType": "string",
          "name": "uri",
          "type": "string"
        }
      ],
      "name": "safeMint",
      "outputs": [],
      "stateMutability": "nonpayable",
      "type": "function"
    },
    {
      "inputs": [
        {
          "internalType": "address",
          "name": "from",
          "type": "address"
        },
        {
          "internalType": "address",
          "name": "to",
          "type": "address"
        },
        {
          "internalType": "uint256",
          "name": "tokenId",
          "type": "uint256"
        }
      ],
      "name": "safeTransferFrom",
      "outputs": [],
      "stateMutability": "nonpayable",
      "type": "function"
    },
    {
      "inputs": [
        {
          "internalType": "address",
          "name": "from",
          "type": "address"
        },
        {
          "internalType": "address",
          "name": "to",
          "type": "address"
        },
        {
          "internalType": "uint256",
          "name": "tokenId",
          "type": "uint256"
        },
        {
          "internalType": "bytes",
          "name": "data",
          "type": "bytes"
        }
      ],
      "name": "safeTransferFrom",
      "outputs": [],
      "stateMutability": "nonpayable",
      "type": "function"
    },
    {
      "inputs": [
        {
          "internalType": "address",
          "name": "operator",
          "type": "address"
        },
        {
          "internalType": "bool",
          "name": "approved",
          "type": "bool"
        }
      ],
      "name": "setApprovalForAll",
      "outputs": [],
      "stateMutability": "nonpayable",
      "type": "function"
    },
    {
      "inputs": [
        {
          "internalType": "string",
          "name": "baseTokenURI",
          "type": "string"
        }
      ],
      "name": "setBaseURI",
      "outputs": [],
      "stateMutability": "nonpayable",
      "type": "function"
    },
    {
      "inputs": [
        {
          "internalType": "uint256",
          "name": "newMaxMint",
          "type": "uint256"
        }
      ],
      "name": "setMaxMintPerAddress",
      "outputs": [],
      "stateMutability": "nonpayable",
      "type": "function"
    },
    {
      "inputs": [
        {
          "internalType": "uint256",
          "name": "newMaxSupply",
          "type": "uint256"
        }
      ],
      "name": "setMaxSupply",
      "outputs": [],
      "stateMutability": "nonpayable",
      "type": "function"
    },
    {
      "inputs": [
        {
          "internalType": "uint256",
          "name": "newPrice",
          "type": "uint256"
        }
      ],
      "name": "setMintPrice",
      "outputs": [],
      "stateMutability": "nonpayable",
      "type": "function"
    },
    {
      "inputs": [
        {
          "internalType": "bytes4",
          "name": "interfaceId",
          "type": "bytes4"
        }
      ],
      "name": "supportsInterface",
      "outputs": [
        {
          "internalType": "bool",
          "name": "",
          "type": "bool"
        }
      ],
      "stateMutability": "view",
      "type": "function"
    },
    {
      "inputs": [],
      "name": "symbol",
      "outputs": [
        {
          "internalType": "string",
          "name": "",
          "type": "string"
        }
      ],
      "stateMutability": "view",
      "type": "function"
    },
    {
      "inputs": [
        {
          "internalType": "uint256",
          "name": "tokenId",
          "type": "uint256"
        }
      ],
      "name": "tokenURI",
      "outputs": [
        {
          "internalType": "string",
          "name": "",
          "type": "string"
        }
      ],
      "stateMutability": "view",
      "type": "function"
    },
    {
      "inputs": [
        {
          "internalType": "address",
          "name": "owner",
          "type": "address"
        }
      ],
      "name": "tokensOfOwner",
      "outputs": [
        {
          "internalType": "uint256[]",
          "name": "",
          "type": "uint256[]"
        }
      ],
      "stateMutability": "view",
      "type": "function"
    },
    {
      "inputs": [],
      "name": "totalSupply",
      "outputs": [
        {
          "internalType": "uint256",
          "name": "",
          "type": "uint256"
        }
      ],
      "stateMutability": "view",
      "type": "function"
    },
    {
      "inputs": [
        {
          "internalType": "address",
          "name": "from",
          "type": "address"
        },
        {
          "internalType": "address",
          "name": "to",
          "type": "address"
        },
        {
          "internalType": "uint256",
          "name": "tokenId",
          "type": "uint256"
        }
      ],
      "name": "transferFrom",
      "outputs": [],
      "stateMutability": "nonpayable",
      "type": "function"
    },
    {
      "inputs": [
        {
          "internalType": "address",
          "name": "newOwner",
          "type": "address"
        }
      ],
      "name": "transferOwnership",
      "outputs": [],
      "stateMutability": "nonpayable",
      "type": "function"
    },
    {
      "inputs": [],
      "name": "withdraw",
      "outputs": [],
      "stateMutability": "nonpayable",
      "type": "function"
    }
  ],
  "bytecode": "0x608060405264e8d4a51000600955620f4240600a55600a600b553480156200002657600080fd5b50604051620042263803806200422683398181016040528101906200004c919062000378565b33838381600090816200006091906200067c565b5080600190816200007291906200067c565b505050600073ffffffffffffffffffffffffffffffffffffffff168173ffffffffffffffffffffffffffffffffffffffff1603620000ea5760006040517f1e4fbdf7000000000000000000000000000000000000000000000000000000008152600401620000e19190620007a8565b60405180910390fd5b620000fb816200011f60201b60201c565b5080600d90816200010d91906200067c565b506001600881905550505050620007c5565b6000600760009054906101000a900473ffffffffffffffffffffffffffffffffffffffff16905081600760006101000a81548173ffffffffffffffffffffffffffffffffffffffff021916908373ffffffffffffffffffffffffffffffffffffffff1602179055508173ffffffffffffffffffffffffffffffffffffffff168173ffffffffffffffffffffffffffffffffffffffff167f8be0079c531659141344cd1fd0a4f28419497f9722a3daafe3b4186f6b6457e060405160405180910390a35050565b6000604051905090565b600080fd5b600080fd5b600080fd5b600080fd5b6000601f19601f8301169050919050565b7f4e487b7100000000000000000000000000000000000000000000000000000000600052604160045260246000fd5b6200024e8262000203565b810181811067ffffffffffffffff8211171562000270576200026f62000214565b5b80604052505050565b600062000285620001e5565b905062000293828262000243565b919050565b600067ffffffffffffffff821115620002b657620002b562000214565b5b620002c18262000203565b9050602081019050919050565b60005b83811015620002ee578082015181840152602081019050620002d1565b60008484015250505050565b6000620003116200030b8462000298565b62000279565b90508281526020810184848401111562000330576200032f620001fe565b5b6200033d848285620002ce565b509392505050565b600082601f8301126200035d576200035c620001f9565b5b81516200036f848260208601620002fa565b91505092915050565b600080600060608486031215620003945762000393620001ef565b5b600084015167ffffffffffffffff811115620003b557620003b4620001f4565b5b620003c38682870162000345565b935050602084015167ffffffffffffffff811115620003e757620003e6620001f4565b5b620003f58682870162000345565b925050604084015167ffffffffffffffff811115620004195762000418620001f4565b5b620004278682870162000345565b9150509250925092565b600081519050919050565b7f4e487b7100000000000000000000000000000000000000000000000000000000600052602260045260246000fd5b600060028204905060018216806200048457607f821691505b6020821081036200049a57620004996200043c565b5b50919050565b60008190508160005260206000209050919050565b60006020601f8301049050919050565b600082821b905092915050565b600060088302620005047fffffffffffffffffffffffffffffffffffffffffffffffffffffffffffffffff82620004c5565b620005108683620004c5565b95508019841693508086168417925050509392505050565b6000819050919050565b6000819050919050565b60006200055d62000557620005518462000528565b62000532565b62000528565b9050919050565b6000819050919050565b62000579836200053c565b62000591620005888262000564565b848454620004d2565b825550505050565b600090565b620005a862000599565b620005b58184846200056e565b505050565b5b81811015620005dd57620005d16000826200059e565b600181019050620005bb565b5050565b601f8211156200062c57620005f681620004a0565b6200060184620004b5565b8101602085101562000611578190505b620006296200062085620004b5565b830182620005ba565b50505b505050565b600082821c905092915050565b6000620006516000198460080262000631565b1980831691505092915050565b60006200066c83836200063e565b9150826002028217905092915050565b620006878262000431565b67ffffffffffffffff811115620006a357620006a262000214565b5b620006af82546200046b565b620006bc828285620005e1565b600060209050601f831160018114620006f45760008415620006df578287015190505b620006eb85826200065e565b8655506200075b565b601f1984166200070486620004a0565b60005b828110156200072e5784890151825560018201915060208501945060208101905062000707565b868310156200074e57848901516200074a601f8916826200063e565b8355505b6001600288020188555050505b505050505050565b600073ffffffffffffffffffffffffffffffffffffffff82169050919050565b6000620007908262000763565b9050919050565b620007a28162000783565b82525050565b6000602082019050620007bf600083018462000797565b92915050565b613a5180620007d56000396000f3fe6080604052600436106101e35760003560e01c80636817c76c11610102578063b3d7acf911610095578063d5abeb0111610064578063d5abeb01146106df578063e985e9c51461070a578063f2fde38b14610747578063f4a0a52814610770576101e3565b8063b3d7acf914610634578063b88d4fde14610650578063c87b56dd14610679578063d204c45e146106b6576101e3565b80638462151c116100d15780638462151c146105785780638da5cb5b146105b557806395d89b41146105e0578063a22cb4651461060b576101e3565b80636817c76c146104d05780636f8b44b0146104fb57806370a0823114610524578063715018a614610561576101e3565b80633ccfd60b1161017a57806355f804b31161014957806355f804b314610416578063572849c41461043f5780636352211e1461046a57806364ba144e146104a7576101e3565b80633ccfd60b1461037057806342842e0e1461038757806342966c68146103b05780634f558e79146103d9576101e3565b806318160ddd116101b657806318160ddd146102b65780631e14d44b146102e157806323b872dd1461030a5780633ca63f2c14610333576101e3565b806301ffc9a7146101e857806306fdde0314610225578063081812fc14610250578063095ea7b31461028d575b600080fd5b3480156101f457600080fd5b5061020f600480360381019061020a9190612768565b610799565b60405161021c91906127b0565b60405180910390f35b34801561023157600080fd5b5061023a6107ab565b604051610247919061285b565b60405180910390f35b34801561025c57600080fd5b50610277600480360381019061027291906128b3565b61083d565b6040516102849190612921565b60405180910390f35b34801561029957600080fd5b506102b460048036038101906102af9190612968565b610859565b005b3480156102c257600080fd5b506102cb61086f565b6040516102d891906129b7565b60405180910390f35b3480156102ed57600080fd5b50610308600480360381019061030391906128b3565b610885565b005b34801561031657600080fd5b50610331600480360381019061032c91906129d2565b610897565b005b34801561033f57600080fd5b5061035a60048036038101906103559190612a25565b610999565b60405161036791906129b7565b60405180910390f35b34801561037c57600080fd5b506103856109b1565b005b34801561039357600080fd5b506103ae60048036038101906103a991906129d2565b610ab8565b005b3480156103bc57600080fd5b506103d760048036038101906103d291906128b3565b610ad8565b005b3480156103e557600080fd5b5061040060048036038101906103fb91906128b3565b610aef565b60405161040d91906127b0565b60405180910390f35b34801561042257600080fd5b5061043d60048036038101906104389190612b87565b610b30565b005b34801561044b57600080fd5b50610454610b82565b60405161046191906129b7565b60405180910390f35b34801561047657600080fd5b50610491600480360381019061048c91906128b3565b610b88565b60405161049e9190612921565b60405180910390f35b3480156104b357600080fd5b506104ce60048036038101906104c99190612d79565b610b9a565b005b3480156104dc57600080fd5b506104e5610d48565b6040516104f291906129b7565b60405180910390f35b34801561050757600080fd5b50610522600480360381019061051d91906128b3565b610d4e565b005b34801561053057600080fd5b5061054b60048036038101906105469190612a25565b610da5565b60405161055891906129b7565b60405180910390f35b34801561056d57600080fd5b50610576610e5f565b005b34801561058457600080fd5b5061059f600480360381019061059a9190612a25565b610e73565b6040516105ac9190612eaf565b60405180910390f35b3480156105c157600080fd5b506105ca610f6a565b6040516105d79190612921565b60405180910390f35b3480156105ec57600080fd5b506105f5610f94565b604051610602919061285b565b60405180910390f35b34801561061757600080fd5b50610632600480360381019061062d9190612efd565b611026565b005b61064e60048036038101906106499190612b87565b61103c565b005b34801561065c57600080fd5b5061067760048036038101906106729190612fde565b611226565b005b34801561068557600080fd5b506106a0600480360381019061069b91906128b3565b61124b565b6040516106ad919061285b565b60405180910390f35b3480156106c257600080fd5b506106dd60048036038101906106d89190613061565b61125d565b005b3480156106eb57600080fd5b506106f4611333565b60405161070191906129b7565b60405180910390f35b34801561071657600080fd5b50610731600480360381019061072c91906130bd565b611339565b60405161073e91906127b0565b60405180910390f35b34801561075357600080fd5b5061076e60048036038101906107699190612a25565b6113cd565b005b34801561077c57600080fd5b50610797600480360381019061079291906128b3565b611453565b005b60006107a48261149c565b9050919050565b6060600080546107ba9061312c565b80601f01602080910402602001604051908101604052809291908181526020018280546107e69061312c565b80156108335780601f1061080857610100808354040283529160200191610833565b820191906000526020600020905b81548152906001019060200180831161081657829003601f168201915b5050505050905090565b6000610848826114fd565b5061085282611585565b9050919050565b61086b82826108666115c2565b6115ca565b5050565b60006001600854610880919061318c565b905090565b61088d6115dc565b80600b8190555050565b600073ffffffffffffffffffffffffffffffffffffffff168273ffffffffffffffffffffffffffffffffffffffff16036109095760006040517f64a0ae920000000000000000000000000000000000000000000000000000000081526004016109009190612921565b60405180910390fd5b600061091d83836109186115c2565b611663565b90508373ffffffffffffffffffffffffffffffffffffffff168173ffffffffffffffffffffffffffffffffffffffff1614610993578382826040517f64283d7b00000000000000000000000000000000000000000000000000000000815260040161098a939291906131c0565b60405180910390fd5b50505050565b600c6020528060005260406000206000915090505481565b6109b96115dc565b600047905060008111610a01576040517f08c379a00000000000000000000000000000000000000000000000000000000081526004016109f890613243565b60405180910390fd5b6000610a0b610f6a565b73ffffffffffffffffffffffffffffffffffffffff1682604051610a2e90613294565b60006040518083038185875af1925050503d8060008114610a6b576040519150601f19603f3d011682016040523d82523d6000602084013e610a70565b606091505b5050905080610ab4576040517f08c379a0000000000000000000000000000000000000000000000000000000008152600401610aab906132f5565b60405180910390fd5b5050565b610ad383838360405180602001604052806000815250611226565b505050565b610aeb600082610ae66115c2565b611663565b5050565b60008073ffffffffffffffffffffffffffffffffffffffff16610b118361187d565b73ffffffffffffffffffffffffffffffffffffffff1614159050919050565b610b386115dc565b80600d9081610b4791906134c1565b507f6741b2fc379fad678116fe3d4d4b9a1a184ab53ba36b86ad0fa66340b1ab41ad81604051610b77919061285b565b60405180910390a150565b600b5481565b6000610b93826114fd565b9050919050565b610ba26115dc565b8051825114610be6576040517f08c379a0000000000000000000000000000000000000000000000000000000008152600401610bdd906135df565b60405180910390fd5b600a548251600854610bf891906135ff565b1115610c39576040517f08c379a0000000000000000000000000000000000000000000000000000000008152600401610c309061367f565b60405180910390fd5b60005b8251811015610d43576000600854905060086000815480929190610c5f9061369f565b9190505550610c88848381518110610c7a57610c796136e7565b5b6020026020010151826118ba565b610cac81848481518110610c9f57610c9e6136e7565b5b60200260200101516118d8565b80848381518110610cc057610cbf6136e7565b5b602002602001015173ffffffffffffffffffffffffffffffffffffffff167fd35bb95e09c04b219e35047ce7b7b300e3384264ef84a40456943dbc0fc17c14858581518110610d1257610d116136e7565b5b6020026020010151604051610d27919061285b565b60405180910390a3508080610d3b9061369f565b915050610c3c565b505050565b60095481565b610d566115dc565b600854811015610d9b576040517f08c379a0000000000000000000000000000000000000000000000000000000008152600401610d9290613788565b60405180910390fd5b80600a8190555050565b60008073ffffffffffffffffffffffffffffffffffffffff168273ffffffffffffffffffffffffffffffffffffffff1603610e185760006040517f89c62b64000000000000000000000000000000000000000000000000000000008152600401610e0f9190612921565b60405180910390fd5b600360008373ffffffffffffffffffffffffffffffffffffffff1673ffffffffffffffffffffffffffffffffffffffff168152602001908152602001600020549050919050565b610e676115dc565b610e716000611934565b565b60606000610e8083610da5565b905060008167ffffffffffffffff811115610e9e57610e9d612a5c565b5b604051908082528060200260200182016040528015610ecc5781602001602082028036833780820191505090505b509050600080600190505b600854811015610f5e578573ffffffffffffffffffffffffffffffffffffffff16610f018261187d565b73ffffffffffffffffffffffffffffffffffffffff1603610f4b5780838381518110610f3057610f2f6136e7565b5b6020026020010181815250508180610f479061369f565b9250505b8080610f569061369f565b915050610ed7565b50819350505050919050565b6000600760009054906101000a900473ffffffffffffffffffffffffffffffffffffffff16905090565b606060018054610fa39061312c565b80601f0160208091040260200160405190810160405280929190818152602001828054610fcf9061312c565b801561101c5780601f10610ff15761010080835404028352916020019161101c565b820191906000526020600020905b815481529060010190602001808311610fff57829003601f168201915b5050505050905090565b6110386110316115c2565b83836119fa565b5050565b600954341015611081576040517f08c379a0000000000000000000000000000000000000000000000000000000008152600401611078906137f4565b60405180910390fd5b600a5460085411156110c8576040517f08c379a00000000000000000000000000000000000000000000000000000000081526004016110bf9061367f565b60405180910390fd5b600b54600c60003373ffffffffffffffffffffffffffffffffffffffff1673ffffffffffffffffffffffffffffffffffffffff168152602001908152602001600020541061114b576040517f08c379a000000000000000000000000000000000000000000000000000000000815260040161114290613860565b60405180910390fd5b60006008549050600860008154809291906111659061369f565b9190505550600c60003373ffffffffffffffffffffffffffffffffffffffff1673ffffffffffffffffffffffffffffffffffffffff16815260200190815260200160002060008154809291906111ba9061369f565b91905055506111c933826118ba565b6111d381836118d8565b803373ffffffffffffffffffffffffffffffffffffffff167fd35bb95e09c04b219e35047ce7b7b300e3384264ef84a40456943dbc0fc17c148460405161121a919061285b565b60405180910390a35050565b611231848484610897565b61124561123c6115c2565b85858585611b69565b50505050565b606061125682611d1a565b9050919050565b6112656115dc565b600a5460085411156112ac576040517f08c379a00000000000000000000000000000000000000000000000000000000081526004016112a39061367f565b60405180910390fd5b60006008549050600860008154809291906112c69061369f565b91905055506112d583826118ba565b6112df81836118d8565b808373ffffffffffffffffffffffffffffffffffffffff167fd35bb95e09c04b219e35047ce7b7b300e3384264ef84a40456943dbc0fc17c1484604051611326919061285b565b60405180910390a3505050565b600a5481565b6000600560008473ffffffffffffffffffffffffffffffffffffffff1673ffffffffffffffffffffffffffffffffffffffff16815260200190815260200160002060008373ffffffffffffffffffffffffffffffffffffffff1673ffffffffffffffffffffffffffffffffffffffff16815260200190815260200160002060009054906101000a900460ff16905092915050565b6113d56115dc565b600073ffffffffffffffffffffffffffffffffffffffff168173ffffffffffffffffffffffffffffffffffffffff16036114475760006040517f1e4fbdf700000000000000000000000000000000000000000000000000000000815260040161143e9190612921565b60405180910390fd5b61145081611934565b50565b61145b6115dc565b806009819055507f525b762709cc2a983aec5ccdfd807a061f993c91090b5bcd7da92ca254976aaa8160405161149191906129b7565b60405180910390a150565b6000634906490660e01b7bffffffffffffffffffffffffffffffffffffffffffffffffffffffff1916827bffffffffffffffffffffffffffffffffffffffffffffffffffffffff191614806114f657506114f582611e2d565b5b9050919050565b6000806115098361187d565b9050600073ffffffffffffffffffffffffffffffffffffffff168173ffffffffffffffffffffffffffffffffffffffff160361157c57826040517f7e27328900000000000000000000000000000000000000000000000000000000815260040161157391906129b7565b60405180910390fd5b80915050919050565b60006004600083815260200190815260200160002060009054906101000a900473ffffffffffffffffffffffffffffffffffffffff169050919050565b600033905090565b6115d78383836001611f0f565b505050565b6115e46115c2565b73ffffffffffffffffffffffffffffffffffffffff16611602610f6a565b73ffffffffffffffffffffffffffffffffffffffff1614611661576116256115c2565b6040517f118cdaa70000000000000000000000000000000000000000000000000000000081526004016116589190612921565b60405180910390fd5b565b60008061166f8461187d565b9050600073ffffffffffffffffffffffffffffffffffffffff168373ffffffffffffffffffffffffffffffffffffffff16146116b1576116b08184866120d4565b5b600073ffffffffffffffffffffffffffffffffffffffff168173ffffffffffffffffffffffffffffffffffffffff1614611742576116f3600085600080611f0f565b6001600360008373ffffffffffffffffffffffffffffffffffffffff1673ffffffffffffffffffffffffffffffffffffffff168152602001908152602001600020600082825403925050819055505b600073ffffffffffffffffffffffffffffffffffffffff168573ffffffffffffffffffffffffffffffffffffffff16146117c5576001600360008773ffffffffffffffffffffffffffffffffffffffff1673ffffffffffffffffffffffffffffffffffffffff168152602001908152602001600020600082825401925050819055505b846002600086815260200190815260200160002060006101000a81548173ffffffffffffffffffffffffffffffffffffffff021916908373ffffffffffffffffffffffffffffffffffffffff160217905550838573ffffffffffffffffffffffffffffffffffffffff168273ffffffffffffffffffffffffffffffffffffffff167fddf252ad1be2c89b69c2b068fc378daa952ba7f163c4a11628f55a4df523b3ef60405160405180910390a4809150509392505050565b60006002600083815260200190815260200160002060009054906101000a900473ffffffffffffffffffffffffffffffffffffffff169050919050565b6118d4828260405180602001604052806000815250612198565b5050565b806006600084815260200190815260200160002090816118f891906134c1565b507ff8e1a15aba9398e019f0b49df1a4fde98ee17ae345cb5f6b5e2c27f5033e8ce78260405161192891906129b7565b60405180910390a15050565b6000600760009054906101000a900473ffffffffffffffffffffffffffffffffffffffff16905081600760006101000a81548173ffffffffffffffffffffffffffffffffffffffff021916908373ffffffffffffffffffffffffffffffffffffffff1602179055508173ffffffffffffffffffffffffffffffffffffffff168173ffffffffffffffffffffffffffffffffffffffff167f8be0079c531659141344cd1fd0a4f28419497f9722a3daafe3b4186f6b6457e060405160405180910390a35050565b600073ffffffffffffffffffffffffffffffffffffffff168273ffffffffffffffffffffffffffffffffffffffff1603611a6b57816040517f5b08ba18000000000000000000000000000000000000000000000000000000008152600401611a629190612921565b60405180910390fd5b80600560008573ffffffffffffffffffffffffffffffffffffffff1673ffffffffffffffffffffffffffffffffffffffff16815260200190815260200160002060008473ffffffffffffffffffffffffffffffffffffffff1673ffffffffffffffffffffffffffffffffffffffff16815260200190815260200160002060006101000a81548160ff0219169083151502179055508173ffffffffffffffffffffffffffffffffffffffff168373ffffffffffffffffffffffffffffffffffffffff167f17307eab39ab6107e8899845ad3d59bd9653f200f220920489ca2b5937696c3183604051611b5c91906127b0565b60405180910390a3505050565b60008373ffffffffffffffffffffffffffffffffffffffff163b1115611d13578273ffffffffffffffffffffffffffffffffffffffff1663150b7a02868685856040518563ffffffff1660e01b8152600401611bc894939291906138d5565b6020604051808303816000875af1925050508015611c0457506040513d601f19601f82011682018060405250810190611c019190613936565b60015b611c88573d8060008114611c34576040519150601f19603f3d011682016040523d82523d6000602084013e611c39565b606091505b506000815103611c8057836040517f64a0ae92000000000000000000000000000000000000000000000000000000008152600401611c779190612921565b60405180910390fd5b805181602001fd5b63150b7a0260e01b7bffffffffffffffffffffffffffffffffffffffffffffffffffffffff1916817bffffffffffffffffffffffffffffffffffffffffffffffffffffffff191614611d1157836040517f64a0ae92000000000000000000000000000000000000000000000000000000008152600401611d089190612921565b60405180910390fd5b505b5050505050565b6060611d25826114fd565b506000600660008481526020019081526020016000208054611d469061312c565b80601f0160208091040260200160405190810160405280929190818152602001828054611d729061312c565b8015611dbf5780601f10611d9457610100808354040283529160200191611dbf565b820191906000526020600020905b815481529060010190602001808311611da257829003601f168201915b505050505090506000611dd06121bc565b90506000815103611de5578192505050611e28565b600082511115611e1a578082604051602001611e0292919061399f565b60405160208183030381529060405292505050611e28565b611e238461224e565b925050505b919050565b60007f80ac58cd000000000000000000000000000000000000000000000000000000007bffffffffffffffffffffffffffffffffffffffffffffffffffffffff1916827bffffffffffffffffffffffffffffffffffffffffffffffffffffffff19161480611ef857507f5b5e139f000000000000000000000000000000000000000000000000000000007bffffffffffffffffffffffffffffffffffffffffffffffffffffffff1916827bffffffffffffffffffffffffffffffffffffffffffffffffffffffff1916145b80611f085750611f07826122b7565b5b9050919050565b8080611f485750600073ffffffffffffffffffffffffffffffffffffffff168273ffffffffffffffffffffffffffffffffffffffff1614155b1561207c576000611f58846114fd565b9050600073ffffffffffffffffffffffffffffffffffffffff168373ffffffffffffffffffffffffffffffffffffffff1614158015611fc357508273ffffffffffffffffffffffffffffffffffffffff168173ffffffffffffffffffffffffffffffffffffffff1614155b8015611fd65750611fd48184611339565b155b1561201857826040517fa9fbf51f00000000000000000000000000000000000000000000000000000000815260040161200f9190612921565b60405180910390fd5b811561207a57838573ffffffffffffffffffffffffffffffffffffffff168273ffffffffffffffffffffffffffffffffffffffff167f8c5be1e5ebec7d5bd14f71427d1e84f3dd0314c0f7b2291e5b200ac8c7c3b92560405160405180910390a45b505b836004600085815260200190815260200160002060006101000a81548173ffffffffffffffffffffffffffffffffffffffff021916908373ffffffffffffffffffffffffffffffffffffffff16021790555050505050565b6120df838383612321565b61219357600073ffffffffffffffffffffffffffffffffffffffff168373ffffffffffffffffffffffffffffffffffffffff160361215457806040517f7e27328900000000000000000000000000000000000000000000000000000000815260040161214b91906129b7565b60405180910390fd5b81816040517f177e802f00000000000000000000000000000000000000000000000000000000815260040161218a9291906139c3565b60405180910390fd5b505050565b6121a283836123e2565b6121b76121ad6115c2565b6000858585611b69565b505050565b6060600d80546121cb9061312c565b80601f01602080910402602001604051908101604052809291908181526020018280546121f79061312c565b80156122445780601f1061221957610100808354040283529160200191612244565b820191906000526020600020905b81548152906001019060200180831161222757829003601f168201915b5050505050905090565b6060612259826114fd565b5060006122646121bc565b9050600081511161228457604051806020016040528060008152506122af565b8061228e846124db565b60405160200161229f92919061399f565b6040516020818303038152906040525b915050919050565b60007f01ffc9a7000000000000000000000000000000000000000000000000000000007bffffffffffffffffffffffffffffffffffffffffffffffffffffffff1916827bffffffffffffffffffffffffffffffffffffffffffffffffffffffff1916149050919050565b60008073ffffffffffffffffffffffffffffffffffffffff168373ffffffffffffffffffffffffffffffffffffffff16141580156123d957508273ffffffffffffffffffffffffffffffffffffffff168473ffffffffffffffffffffffffffffffffffffffff16148061239a57506123998484611339565b5b806123d857508273ffffffffffffffffffffffffffffffffffffffff166123c083611585565b73ffffffffffffffffffffffffffffffffffffffff16145b5b90509392505050565b600073ffffffffffffffffffffffffffffffffffffffff168273ffffffffffffffffffffffffffffffffffffffff16036124545760006040517f64a0ae9200000000000000000000000000000000000000000000000000000000815260040161244b9190612921565b60405180910390fd5b600061246283836000611663565b9050600073ffffffffffffffffffffffffffffffffffffffff168173ffffffffffffffffffffffffffffffffffffffff16146124d65760006040517f73c6ac6e0000000000000000000000000000000000000000000000000000000081526004016124cd9190612921565b60405180910390fd5b505050565b6060600060016124ea846125a9565b01905060008167ffffffffffffffff81111561250957612508612a5c565b5b6040519080825280601f01601f19166020018201604052801561253b5781602001600182028036833780820191505090505b509050600082602001820190505b60011561259e578080600190039150507f3031323334353637383961626364656600000000000000000000000000000000600a86061a8153600a8581612592576125916139ec565b5b04945060008503612549575b819350505050919050565b600080600090507a184f03e93ff9f4daa797ed6e38ed64bf6a1f0100000000000000008310612607577a184f03e93ff9f4daa797ed6e38ed64bf6a1f01000000000000000083816125fd576125fc6139ec565b5b0492506040810190505b6d04ee2d6d415b85acef81000000008310612644576d04ee2d6d415b85acef8100000000838161263a576126396139ec565b5b0492506020810190505b662386f26fc10000831061267357662386f26fc100008381612669576126686139ec565b5b0492506010810190505b6305f5e100831061269c576305f5e1008381612692576126916139ec565b5b0492506008810190505b61271083106126c15761271083816126b7576126b66139ec565b5b0492506004810190505b606483106126e457606483816126da576126d96139ec565b5b0492506002810190505b600a83106126f3576001810190505b80915050919050565b6000604051905090565b600080fd5b600080fd5b60007fffffffff0000000000000000000000000000000000000000000000000000000082169050919050565b61274581612710565b811461275057600080fd5b50565b6000813590506127628161273c565b92915050565b60006020828403121561277e5761277d612706565b5b600061278c84828501612753565b91505092915050565b60008115159050919050565b6127aa81612795565b82525050565b60006020820190506127c560008301846127a1565b92915050565b600081519050919050565b600082825260208201905092915050565b60005b838110156128055780820151818401526020810190506127ea565b60008484015250505050565b6000601f19601f8301169050919050565b600061282d826127cb565b61283781856127d6565b93506128478185602086016127e7565b61285081612811565b840191505092915050565b600060208201905081810360008301526128758184612822565b905092915050565b6000819050919050565b6128908161287d565b811461289b57600080fd5b50565b6000813590506128ad81612887565b92915050565b6000602082840312156128c9576128c8612706565b5b60006128d78482850161289e565b91505092915050565b600073ffffffffffffffffffffffffffffffffffffffff82169050919050565b600061290b826128e0565b9050919050565b61291b81612900565b82525050565b60006020820190506129366000830184612912565b92915050565b61294581612900565b811461295057600080fd5b50565b6000813590506129628161293c565b92915050565b6000806040838503121561297f5761297e612706565b5b600061298d85828601612953565b925050602061299e8582860161289e565b9150509250929050565b6129b18161287d565b82525050565b60006020820190506129cc60008301846129a8565b92915050565b6000806000606084860312156129eb576129ea612706565b5b60006129f986828701612953565b9350506020612a0a86828701612953565b9250506040612a1b8682870161289e565b9150509250925092565b600060208284031215612a3b57612a3a612706565b5b6000612a4984828501612953565b91505092915050565b600080fd5b600080fd5b7f4e487b7100000000000000000000000000000000000000000000000000000000600052604160045260246000fd5b612a9482612811565b810181811067ffffffffffffffff82111715612ab357612ab2612a5c565b5b80604052505050565b6000612ac66126fc565b9050612ad28282612a8b565b919050565b600067ffffffffffffffff821115612af257612af1612a5c565b5b612afb82612811565b9050602081019050919050565b82818337600083830152505050565b6000612b2a612b2584612ad7565b612abc565b905082815260208101848484011115612b4657612b45612a57565b5b612b51848285612b08565b509392505050565b600082601f830112612b6e57612b6d612a52565b5b8135612b7e848260208601612b17565b91505092915050565b600060208284031215612b9d57612b9c612706565b5b600082013567ffffffffffffffff811115612bbb57612bba61270b565b5b612bc784828501612b59565b91505092915050565b600067ffffffffffffffff821115612beb57612bea612a5c565b5b602082029050602081019050919050565b600080fd5b6000612c14612c0f84612bd0565b612abc565b90508083825260208201905060208402830185811115612c3757612c36612bfc565b5b835b81811015612c605780612c4c8882612953565b845260208401935050602081019050612c39565b5050509392505050565b600082601f830112612c7f57612c7e612a52565b5b8135612c8f848260208601612c01565b91505092915050565b600067ffffffffffffffff821115612cb357612cb2612a5c565b5b602082029050602081019050919050565b6000612cd7612cd284612c98565b612abc565b90508083825260208201905060208402830185811115612cfa57612cf9612bfc565b5b835b81811015612d4157803567ffffffffffffffff811115612d1f57612d1e612a52565b5b808601612d2c8982612b59565b85526020850194505050602081019050612cfc565b5050509392505050565b600082601f830112612d6057612d5f612a52565b5b8135612d70848260208601612cc4565b91505092915050565b60008060408385031215612d9057612d8f612706565b5b600083013567ffffffffffffffff811115612dae57612dad61270b565b5b612dba85828601612c6a565b925050602083013567ffffffffffffffff811115612ddb57612dda61270b565b5b612de785828601612d4b565b9150509250929050565b600081519050919050565b600082825260208201905092915050565b6000819050602082019050919050565b612e268161287d565b82525050565b6000612e388383612e1d565b60208301905092915050565b6000602082019050919050565b6000612e5c82612df1565b612e668185612dfc565b9350612e7183612e0d565b8060005b83811015612ea2578151612e898882612e2c565b9750612e9483612e44565b925050600181019050612e75565b5085935050505092915050565b60006020820190508181036000830152612ec98184612e51565b905092915050565b612eda81612795565b8114612ee557600080fd5b50565b600081359050612ef781612ed1565b92915050565b60008060408385031215612f1457612f13612706565b5b6000612f2285828601612953565b9250506020612f3385828601612ee8565b9150509250929050565b600067ffffffffffffffff821115612f5857612f57612a5c565b5b612f6182612811565b9050602081019050919050565b6000612f81612f7c84612f3d565b612abc565b905082815260208101848484011115612f9d57612f9c612a57565b5b612fa8848285612b08565b509392505050565b600082601f830112612fc557612fc4612a52565b5b8135612fd5848260208601612f6e565b91505092915050565b60008060008060808587031215612ff857612ff7612706565b5b600061300687828801612953565b945050602061301787828801612953565b93505060406130288782880161289e565b925050606085013567ffffffffffffffff8111156130495761304861270b565b5b61305587828801612fb0565b91505092959194509250565b6000806040838503121561307857613077612706565b5b600061308685828601612953565b925050602083013567ffffffffffffffff8111156130a7576130a661270b565b5b6130b385828601612b59565b9150509250929050565b600080604083850312156130d4576130d3612706565b5b60006130e285828601612953565b92505060206130f385828601612953565b9150509250929050565b7f4e487b7100000000000000000000000000000000000000000000000000000000600052602260045260246000fd5b6000600282049050600182168061314457607f821691505b602082108103613157576131566130fd565b5b50919050565b7f4e487b7100000000000000000000000000000000000000000000000000000000600052601160045260246000fd5b60006131978261287d565b91506131a28361287d565b92508282039050818111156131ba576131b961315d565b5b92915050565b60006060820190506131d56000830186612912565b6131e260208301856129a8565b6131ef6040830184612912565b949350505050565b7f4e6f2062616c616e636520746f20776974686472617700000000000000000000600082015250565b600061322d6016836127d6565b9150613238826131f7565b602082019050919050565b6000602082019050818103600083015261325c81613220565b9050919050565b600081905092915050565b50565b600061327e600083613263565b91506132898261326e565b600082019050919050565b600061329f82613271565b9150819050919050565b7f5769746864726177616c206661696c6564000000000000000000000000000000600082015250565b60006132df6011836127d6565b91506132ea826132a9565b602082019050919050565b6000602082019050818103600083015261330e816132d2565b9050919050565b60008190508160005260206000209050919050565b60006020601f8301049050919050565b600082821b905092915050565b6000600883026133777fffffffffffffffffffffffffffffffffffffffffffffffffffffffffffffffff8261333a565b613381868361333a565b95508019841693508086168417925050509392505050565b6000819050919050565b60006133be6133b96133b48461287d565b613399565b61287d565b9050919050565b6000819050919050565b6133d8836133a3565b6133ec6133e4826133c5565b848454613347565b825550505050565b600090565b6134016133f4565b61340c8184846133cf565b505050565b5b81811015613430576134256000826133f9565b600181019050613412565b5050565b601f8211156134755761344681613315565b61344f8461332a565b8101602085101561345e578190505b61347261346a8561332a565b830182613411565b50505b505050565b600082821c905092915050565b60006134986000198460080261347a565b1980831691505092915050565b60006134b18383613487565b9150826002028217905092915050565b6134ca826127cb565b67ffffffffffffffff8111156134e3576134e2612a5c565b5b6134ed825461312c565b6134f8828285613434565b600060209050601f83116001811461352b5760008415613519578287015190505b61352385826134a5565b86555061358b565b601f19841661353986613315565b60005b828110156135615784890151825560018201915060208501945060208101905061353c565b8683101561357e578489015161357a601f891682613487565b8355505b6001600288020188555050505b505050505050565b7f417272617973206c656e677468206d69736d6174636800000000000000000000600082015250565b60006135c96016836127d6565b91506135d482613593565b602082019050919050565b600060208201905081810360008301526135f8816135bc565b9050919050565b600061360a8261287d565b91506136158361287d565b925082820190508082111561362d5761362c61315d565b5b92915050565b7f4d617820737570706c7920657863656564656400000000000000000000000000600082015250565b60006136696013836127d6565b915061367482613633565b602082019050919050565b600060208201905081810360008301526136988161365c565b9050919050565b60006136aa8261287d565b91507fffffffffffffffffffffffffffffffffffffffffffffffffffffffffffffffff82036136dc576136db61315d565b5b600182019050919050565b7f4e487b7100000000000000000000000000000000000000000000000000000000600052603260045260246000fd5b7f4e6577206d617820737570706c79206d757374206265203e3d2063757272656e60008201527f7420737570706c79000000000000000000000000000000000000000000000000602082015250565b60006137726028836127d6565b915061377d82613716565b604082019050919050565b600060208201905081810360008301526137a181613765565b9050919050565b7f496e73756666696369656e74207061796d656e74000000000000000000000000600082015250565b60006137de6014836127d6565b91506137e9826137a8565b602082019050919050565b6000602082019050818103600083015261380d816137d1565b9050919050565b7f4d6178206d696e74207065722061646472657373206578636565646564000000600082015250565b600061384a601d836127d6565b915061385582613814565b602082019050919050565b600060208201905081810360008301526138798161383d565b9050919050565b600081519050919050565b600082825260208201905092915050565b60006138a782613880565b6138b1818561388b565b93506138c18185602086016127e7565b6138ca81612811565b840191505092915050565b60006080820190506138ea6000830187612912565b6138f76020830186612912565b61390460408301856129a8565b8181036060830152613916818461389c565b905095945050505050565b6000815190506139308161273c565b92915050565b60006020828403121561394c5761394b612706565b5b600061395a84828501613921565b91505092915050565b600081905092915050565b6000613979826127cb565b6139838185613963565b93506139938185602086016127e7565b80840191505092915050565b60006139ab828561396e565b91506139b7828461396e565b91508190509392505050565b60006040820190506139d86000830185612912565b6139e560208301846129a8565b9392505050565b7f4e487b7100000000000000000000000000000000000000000000000000000000600052601260045260246000fdfea2646970667358221220ee297a51cf10e67187ef451a368f8f7d0bb730a113e0f715768329809d48d17f64736f6c63430008140033",
  "linkReferences": {},
  "deployedLinkReferences": {}
}